{"contracts/Farming.sol":{"Farming":{"abi":[{"inputs":[{"internalType":"uint256","name":"max_stake_amount_","type":"uint256"},{"internalType":"contract IERC20","name":"stakingToken_","type":"address"},{"internalType":"address","name":"lpTokenAddr_","type":"address"},{"internalType":"address","name":"nomiswapStakingServiceAddr_","type":"address"},{"internalType":"address","name":"nomiswapRouterServiceAddr_","type":"address"}],"stateMutability":"nonpayable","type":"constructor"},{"anonymous":false,"inputs":[{"indexed":true,"internalType":"address","name":"previousOwner","type":"address"},{"indexed":true,"internalType":"address","name":"newOwner","type":"address"}],"name":"OwnershipTransferred","type":"event"},{"inputs":[],"name":"add_liquidity","outputs":[],"stateMutability":"nonpayable","type":"function"},{"inputs":[],"name":"deposit","outputs":[],"stateMutability":"nonpayable","type":"function"},{"inputs":[{"internalType":"address","name":"_tokenIn","type":"address"},{"internalType":"address","name":"_tokenOut","type":"address"},{"internalType":"uint256","name":"_amountIn","type":"uint256"}],"name":"getAmountOutMin","outputs":[{"internalType":"uint256","name":"","type":"uint256"}],"stateMutability":"view","type":"function"},{"inputs":[],"name":"get_amount_before_deposit","outputs":[{"internalType":"uint256","name":"","type":"uint256"},{"internalType":"uint256","name":"","type":"uint256"},{"internalType":"uint256","name":"","type":"uint256"},{"internalType":"uint256","name":"","type":"uint256"},{"internalType":"uint256","name":"","type":"uint256"},{"internalType":"uint256","name":"","type":"uint256"}],"stateMutability":"view","type":"function"},{"inputs":[],"name":"liquidityAddress","outputs":[{"components":[{"internalType":"int8","name":"workchain","type":"int8"},{"internalType":"bytes32","name":"address_hash","type":"bytes32"}],"internalType":"struct TonAddress","name":"","type":"tuple"}],"stateMutability":"view","type":"function"},{"inputs":[],"name":"maxStake","outputs":[{"internalType":"uint256","name":"","type":"uint256"}],"stateMutability":"view","type":"function"},{"inputs":[],"name":"nomiswapStakingServiceAddress","outputs":[{"internalType":"address","name":"","type":"address"}],"stateMutability":"view","type":"function"},{"inputs":[],"name":"owner","outputs":[{"internalType":"address","name":"","type":"address"}],"stateMutability":"view","type":"function"},{"inputs":[],"name":"renounceOwnership","outputs":[],"stateMutability":"nonpayable","type":"function"},{"inputs":[],"name":"royaltyAddress","outputs":[{"internalType":"address","name":"","type":"address"}],"stateMutability":"view","type":"function"},{"inputs":[],"name":"stake","outputs":[],"stateMutability":"nonpayable","type":"function"},{"inputs":[],"name":"stop_staking","outputs":[],"stateMutability":"nonpayable","type":"function"},{"inputs":[],"name":"timer_init","outputs":[],"stateMutability":"nonpayable","type":"function"},{"inputs":[{"internalType":"address","name":"newOwner","type":"address"}],"name":"transferOwnership","outputs":[],"stateMutability":"nonpayable","type":"function"},{"stateMutability":"payable","type":"receive"}],"evm":{"bytecode":{"linkReferences":{},"object":"6101606040523480156200001257600080fd5b506040516200209338038062002093833981016040819052620000359162000126565b6200004033620000bd565b604080518082019091526000808252602082018181527376a797a59ba2c17726896976b7b3747bfd1d220f608052600182905560e0979097526001600160a01b0395861660a05293851660c052918416610100529092166101205261014052516002805460ff191660ff909216919091179055516003556200019a565b600080546001600160a01b038381166001600160a01b0319831681178455604051919092169283917f8be0079c531659141344cd1fd0a4f28419497f9722a3daafe3b4186f6b6457e09190a35050565b6001600160a01b03811681146200012357600080fd5b50565b600080600080600060a086880312156200013f57600080fd5b85519450602086015162000153816200010d565b604087015190945062000166816200010d565b606087015190935062000179816200010d565b60808701519092506200018c816200010d565b809150509295509295909350565b60805160a05160c05160e051610100516101205161014051611dd3620002c0600039600081816102670152610f820152600081816113aa0152818161144a01526114f10152600081816102020152818161070d015281816107cd0152818161085e0152610a990152600081816102af0152610f0c01526000818161042e015281816106830152818161073f01526112620152600081816103bc015281816104cc015281816105e101528181610e0c01528181610e51015281816111f0015281816113000152818161147901528181611527015281816116c8015261171a01526000818161098801528181610ea001528181610ee001528181610f5b0152818161104a0152818161162701528181611667015281816116a701526116f90152611dd36000f3fe6080604052600436106100e15760003560e01c80638da5cb5b1161007f578063ea1b28e011610059578063ea1b28e0146102a0578063ec45ef89146102d3578063f2fde38b146102e8578063fd08a2011461030857600080fd5b80638da5cb5b1461023a578063ad2f852a14610258578063d0e30db01461028b57600080fd5b80633c50eec1116100bb5780633c50eec11461019b5780634ea0abfb146101c9578063715018a6146101de5780638d020e6b146101f357600080fd5b80630c45b610146100ed5780633221c93f146101345780633a4b66f11461018457600080fd5b366100e857005b600080fd5b3480156100f957600080fd5b5061010261031d565b604080519687526020870195909552938501929092526060840152608083015260a082015260c0015b60405180910390f35b34801561014057600080fd5b50604080518082018252600080825260209182018190528251808401845260025490910b80825260035491830191825283519081529051918101919091520161012b565b34801561019057600080fd5b5061019961066b565b005b3480156101a757600080fd5b506101bb6101b6366004611a19565b610834565b60405190815260200161012b565b3480156101d557600080fd5b50610199610849565b3480156101ea57600080fd5b50610199610954565b3480156101ff57600080fd5b507f00000000000000000000000000000000000000000000000000000000000000005b6040516001600160a01b03909116815260200161012b565b34801561024657600080fd5b506000546001600160a01b0316610222565b34801561026457600080fd5b507f0000000000000000000000000000000000000000000000000000000000000000610222565b34801561029757600080fd5b50610199610968565b3480156102ac57600080fd5b507f00000000000000000000000000000000000000000000000000000000000000006101bb565b3480156102df57600080fd5b50610199610970565b3480156102f457600080fd5b50610199610303366004611a55565b610a09565b34801561031457600080fd5b50610199610a84565b6040516370a0823160e01b8152306004820152600090819081908190819081908190600080516020611d7e833981519152906370a0823190602401602060405180830381865afa158015610375573d6000803e3d6000fd5b505050506040513d601f19601f820116820180604052508101906103999190611a77565b6040516370a0823160e01b81523060048201529091506000906001600160a01b037f000000000000000000000000000000000000000000000000000000000000000016906370a0823190602401602060405180830381865afa158015610403573d6000803e3d6000fd5b505050506040513d601f19601f820116820180604052508101906104279190611a77565b90506000807f00000000000000000000000000000000000000000000000000000000000000006001600160a01b0316630902f1ac6040518163ffffffff1660e01b8152600401606060405180830381865afa15801561048a573d6000803e3d6000fd5b505050506040513d601f19601f820116820180604052508101906104ae9190611aa7565b506001600160701b0391821693501690506000806001600160a01b037f000000000000000000000000000000000000000000000000000000000000000016600080516020611d7e8339815191521061050757828461050a565b83835b9092509050848261051b8389611b0d565b6105259190611b2c565b101561054757816105368288611b0d565b6105409190611b2c565b945061055f565b806105528387611b0d565b61055c9190611b2c565b95505b6040516370a0823160e01b8152306004820152600080516020611d7e833981519152906370a0823190602401602060405180830381865afa1580156105a8573d6000803e3d6000fd5b505050506040513d601f19601f820116820180604052508101906105cc9190611a77565b6040516370a0823160e01b81523060048201527f00000000000000000000000000000000000000000000000000000000000000006001600160a01b0316906370a0823190602401602060405180830381865afa158015610630573d6000803e3d6000fd5b505050506040513d601f19601f820116820180604052508101906106549190611a77565b909d909c50959a5093985096509194509192505050565b6040516370a0823160e01b81523060048201526000907f00000000000000000000000000000000000000000000000000000000000000006001600160a01b0316906370a0823190602401602060405180830381865afa1580156106d2573d6000803e3d6000fd5b505050506040513d601f19601f820116820180604052508101906106f69190611a77565b60405163095ea7b360e01b81526001600160a01b037f000000000000000000000000000000000000000000000000000000000000000081166004830152602482018390529192507f00000000000000000000000000000000000000000000000000000000000000009091169063095ea7b3906044016020604051808303816000875af115801561078a573d6000803e3d6000fd5b505050506040513d601f19601f820116820180604052508101906107ae9190611b4e565b5060405163111fc57d60e31b81526001600160801b03821660048201527f00000000000000000000000000000000000000000000000000000000000000006001600160a01b0316906388fe2be890602401600060405180830381600087803b15801561081957600080fd5b505af115801561082d573d6000803e3d6000fd5b5050505050565b6000610841848484610b92565b949350505050565b6040516348b4573960e11b81523060048201527f0000000000000000000000000000000000000000000000000000000000000000906000906001600160a01b03831690639168ae7290602401608060405180830381865afa1580156108b2573d6000803e3d6000fd5b505050506040513d601f19601f820116820180604052508101906108d69190611b87565b506040516322c50eb760e11b81526001600160801b03821660048201529093506001600160a01b038516925063458a1d6e9150602401600060405180830381600087803b15801561092657600080fd5b505af115801561093a573d6000803e3d6000fd5b50505050610950816001600160801b0316610df6565b5050565b61095c6110b3565b610966600061110d565b565b61096661115d565b6040516370a0823160e01b81523060048201526000907f00000000000000000000000000000000000000000000000000000000000000006001600160a01b0316906370a0823190602401602060405180830381865afa1580156109d7573d6000803e3d6000fd5b505050506040513d601f19601f820116820180604052508101906109fb9190611a77565b9050610a0681611608565b50565b610a116110b3565b6001600160a01b038116610a7b5760405162461bcd60e51b815260206004820152602660248201527f4f776e61626c653a206e6577206f776e657220697320746865207a65726f206160448201526564647265737360d01b60648201526084015b60405180910390fd5b610a068161110d565b6040516348b4573960e11b81523060048201527f0000000000000000000000000000000000000000000000000000000000000000906000906001600160a01b03831690639168ae7290602401608060405180830381865afa158015610aed573d6000803e3d6000fd5b505050506040513d601f19601f82011682018060405250810190610b119190611b87565b50506040516322c50eb760e11b81526001600160801b038316600482015291925082916001600160a01b038516915063458a1d6e90602401600060405180830381600087803b158015610b6357600080fd5b505af1158015610b77573d6000803e3d6000fd5b50505050610b8d816001600160801b0316610df6565b505050565b600060606001600160a01b03851673bb4cdb9cbd36b01bd1cbaebf2de08d9173bc095c1480610bdd57506001600160a01b03841673bb4cdb9cbd36b01bd1cbaebf2de08d9173bc095c145b15610c6f5760408051600280825260608201835290916020830190803683370190505090508481600081518110610c1657610c16611be1565b60200260200101906001600160a01b031690816001600160a01b0316815250508381600181518110610c4a57610c4a611be1565b60200260200101906001600160a01b031690816001600160a01b031681525050610d41565b6040805160038082526080820190925290602082016060803683370190505090508481600081518110610ca457610ca4611be1565b60200260200101906001600160a01b031690816001600160a01b0316815250507355d398326f99059ff775485246999027b319795581600181518110610cec57610cec611be1565b60200260200101906001600160a01b031690816001600160a01b0316815250508381600281518110610d2057610d20611be1565b60200260200101906001600160a01b031690816001600160a01b0316815250505b60405163d06ca61f60e01b81526000907310ed43c718714eb63d5aa57b78b54704e256024e9063d06ca61f90610d7d9087908690600401611c3b565b600060405180830381865afa158015610d9a573d6000803e3d6000fd5b505050506040513d6000823e601f3d908101601f19168201604052610dc29190810190611c54565b90508060018351610dd39190611d12565b81518110610de357610de3611be1565b6020026020010151925050509392505050565b6000610e3b600080516020611d7e8339815191527f0000000000000000000000000000000000000000000000000000000000000000610e36600486611b2c565b610b92565b9050610e82600080516020611d7e8339815191527f0000000000000000000000000000000000000000000000000000000000000000610e7b600486611b2c565b8430611744565b610e8a61115d565b6000610eca600080516020611d7e8339815191527f0000000000000000000000000000000000000000000000000000000000000000610e36600287611b2c565b9050610f0a600080516020611d7e8339815191527f0000000000000000000000000000000000000000000000000000000000000000610e7b600287611b2c565b7f000000000000000000000000000000000000000000000000000000000000000081600154610f399190611d29565b1161102157610f51610f4c600283611b2c565b611608565b6001600160a01b037f00000000000000000000000000000000000000000000000000000000000000001663a9059cbb7f0000000000000000000000000000000000000000000000000000000000000000610fac600285611b2c565b6040516001600160e01b031960e085901b1681526001600160a01b03909216600483015260248201526044016020604051808303816000875af1158015610ff7573d6000803e3d6000fd5b505050506040513d601f19601f8201168201806040525081019061101b9190611b4e565b50505050565b60405163e057fbff60e01b81526004810182905260025460000b602482015260035460448201527f00000000000000000000000000000000000000000000000000000000000000006001600160a01b03169063e057fbff90606401600060405180830381600087803b15801561109657600080fd5b505af11580156110aa573d6000803e3d6000fd5b50505050505050565b6000546001600160a01b031633146109665760405162461bcd60e51b815260206004820181905260248201527f4f776e61626c653a2063616c6c6572206973206e6f7420746865206f776e65726044820152606401610a72565b600080546001600160a01b038381166001600160a01b0319831681178455604051919092169283917f8be0079c531659141344cd1fd0a4f28419497f9722a3daafe3b4186f6b6457e09190a35050565b6040516370a0823160e01b8152306004820152600090600080516020611d7e833981519152906370a0823190602401602060405180830381865afa1580156111a9573d6000803e3d6000fd5b505050506040513d601f19601f820116820180604052508101906111cd9190611a77565b6040516370a0823160e01b81523060048201529091506000906001600160a01b037f000000000000000000000000000000000000000000000000000000000000000016906370a0823190602401602060405180830381865afa158015611237573d6000803e3d6000fd5b505050506040513d601f19601f8201168201806040525081019061125b9190611a77565b90506000807f00000000000000000000000000000000000000000000000000000000000000006001600160a01b0316630902f1ac6040518163ffffffff1660e01b8152600401606060405180830381865afa1580156112be573d6000803e3d6000fd5b505050506040513d601f19601f820116820180604052508101906112e29190611aa7565b506001600160701b0391821693501690506000806001600160a01b037f000000000000000000000000000000000000000000000000000000000000000016600080516020611d7e8339815191521061133b57828461133e565b83835b9092509050848261134f8389611b0d565b6113599190611b2c565b101561137b578161136a8288611b0d565b6113749190611b2c565b9450611393565b806113868387611b0d565b6113909190611b2c565b95505b60405163095ea7b360e01b81526001600160a01b037f000000000000000000000000000000000000000000000000000000000000000016600482015260248101879052600080516020611d7e8339815191529063095ea7b3906044016020604051808303816000875af115801561140e573d6000803e3d6000fd5b505050506040513d601f19601f820116820180604052508101906114329190611b4e565b5060405163095ea7b360e01b81526001600160a01b037f000000000000000000000000000000000000000000000000000000000000000081166004830152602482018790527f0000000000000000000000000000000000000000000000000000000000000000169063095ea7b3906044016020604051808303816000875af11580156114c2573d6000803e3d6000fd5b505050506040513d601f19601f820116820180604052508101906114e69190611b4e565b506001600160a01b037f00000000000000000000000000000000000000000000000000000000000000001663e8e33700600080516020611d7e8339815191527f000000000000000000000000000000000000000000000000000000000000000089896103e8611557836103e3611b0d565b6115619190611b2c565b6103e86115708d6103e3611b0d565b61157a9190611b2c565b6040516001600160e01b031960e089901b1681526001600160a01b03968716600482015295909416602486015260448501929092526064840152608483015260a48201523060c48201524260e482015261010401600060405180830381600087803b1580156115e857600080fd5b505af11580156115fc573d6000803e3d6000fd5b50505050505050505050565b806001600082825461161a9190611d29565b90915550600090506116607f0000000000000000000000000000000000000000000000000000000000000000600080516020611d7e833981519152610e36600286611b2c565b90506116a07f0000000000000000000000000000000000000000000000000000000000000000600080516020611d7e833981519152610e7b600286611b2c565b60006116f27f00000000000000000000000000000000000000000000000000000000000000007f0000000000000000000000000000000000000000000000000000000000000000610e36600287611b2c565b9050610b8d7f00000000000000000000000000000000000000000000000000000000000000007f0000000000000000000000000000000000000000000000000000000000000000610e7b600287611b2c565b60405163095ea7b360e01b81527310ed43c718714eb63d5aa57b78b54704e256024e6004820152602481018490526001600160a01b0386169063095ea7b3906044016020604051808303816000875af11580156117a5573d6000803e3d6000fd5b505050506040513d601f19601f820116820180604052508101906117c99190611b4e565b5060606001600160a01b03861673bb4cdb9cbd36b01bd1cbaebf2de08d9173bc095c148061181357506001600160a01b03851673bb4cdb9cbd36b01bd1cbaebf2de08d9173bc095c145b156118a5576040805160028082526060820183529091602083019080368337019050509050858160008151811061184c5761184c611be1565b60200260200101906001600160a01b031690816001600160a01b031681525050848160018151811061188057611880611be1565b60200260200101906001600160a01b031690816001600160a01b031681525050611977565b60408051600380825260808201909252906020820160608036833701905050905085816000815181106118da576118da611be1565b60200260200101906001600160a01b031690816001600160a01b0316815250507355d398326f99059ff775485246999027b31979558160018151811061192257611922611be1565b60200260200101906001600160a01b031690816001600160a01b031681525050848160028151811061195657611956611be1565b60200260200101906001600160a01b031690816001600160a01b0316815250505b6040516338ed173960e01b81527310ed43c718714eb63d5aa57b78b54704e256024e906338ed1739906119b69087908790869088904290600401611d41565b6000604051808303816000875af11580156119d5573d6000803e3d6000fd5b505050506040513d6000823e601f3d908101601f191682016040526110aa9190810190611c54565b80356001600160a01b0381168114611a1457600080fd5b919050565b600080600060608486031215611a2e57600080fd5b611a37846119fd565b9250611a45602085016119fd565b9150604084013590509250925092565b600060208284031215611a6757600080fd5b611a70826119fd565b9392505050565b600060208284031215611a8957600080fd5b5051919050565b80516001600160701b0381168114611a1457600080fd5b600080600060608486031215611abc57600080fd5b611ac584611a90565b9250611ad360208501611a90565b9150604084015163ffffffff81168114611aec57600080fd5b809150509250925092565b634e487b7160e01b600052601160045260246000fd5b6000816000190483118215151615611b2757611b27611af7565b500290565b600082611b4957634e487b7160e01b600052601260045260246000fd5b500490565b600060208284031215611b6057600080fd5b81518015158114611a7057600080fd5b80516001600160801b0381168114611a1457600080fd5b60008060008060808587031215611b9d57600080fd5b84519350611bad60208601611b70565b9250611bbb60408601611b70565b6060959095015193969295505050565b634e487b7160e01b600052604160045260246000fd5b634e487b7160e01b600052603260045260246000fd5b600081518084526020808501945080840160005b83811015611c305781516001600160a01b031687529582019590820190600101611c0b565b509495945050505050565b8281526040602082015260006108416040830184611bf7565b60006020808385031215611c6757600080fd5b825167ffffffffffffffff80821115611c7f57600080fd5b818501915085601f830112611c9357600080fd5b815181811115611ca557611ca5611bcb565b8060051b604051601f19603f83011681018181108582111715611cca57611cca611bcb565b604052918252848201925083810185019188831115611ce857600080fd5b938501935b82851015611d0657845184529385019392850192611ced565b98975050505050505050565b600082821015611d2457611d24611af7565b500390565b60008219821115611d3c57611d3c611af7565b500190565b85815284602082015260a060408201526000611d6060a0830186611bf7565b6001600160a01b039490941660608301525060800152939250505056fe000000000000000000000000d32d01a43c869edcd1117c640fbdcfcfd97d9d65a2646970667358221220b1490801fd5914aa345a9bad2149d71ccb79b37f63e5a9b2b18910766a951b8664736f6c634300080d0033","opcodes":"PUSH2 0x160 PUSH1 0x40 MSTORE CALLVALUE DUP1 ISZERO PUSH3 0x12 JUMPI PUSH1 0x0 DUP1 REVERT JUMPDEST POP PUSH1 0x40 MLOAD PUSH3 0x2093 CODESIZE SUB DUP1 PUSH3 0x2093 DUP4 CODECOPY DUP2 ADD PUSH1 0x40 DUP2 SWAP1 MSTORE PUSH3 0x35 SWAP2 PUSH3 0x126 JUMP JUMPDEST PUSH3 0x40 CALLER PUSH3 0xBD JUMP JUMPDEST PUSH1 0x40 DUP1 MLOAD DUP1 DUP3 ADD SWAP1 SWAP2 MSTORE PUSH1 0x0 DUP1 DUP3 MSTORE PUSH1 0x20 DUP3 ADD DUP2 DUP2 MSTORE PUSH20 0x76A797A59BA2C17726896976B7B3747BFD1D220F PUSH1 0x80 MSTORE PUSH1 0x1 DUP3 SWAP1 SSTORE PUSH1 0xE0 SWAP8 SWAP1 SWAP8 MSTORE PUSH1 0x1 PUSH1 0x1 PUSH1 0xA0 SHL SUB SWAP6 DUP7 AND PUSH1 0xA0 MSTORE SWAP4 DUP6 AND PUSH1 0xC0 MSTORE SWAP2 DUP5 AND PUSH2 0x100 MSTORE SWAP1 SWAP3 AND PUSH2 0x120 MSTORE PUSH2 0x140 MSTORE MLOAD PUSH1 0x2 DUP1 SLOAD PUSH1 0xFF NOT AND PUSH1 0xFF SWAP1 SWAP3 AND SWAP2 SWAP1 SWAP2 OR SWAP1 SSTORE MLOAD PUSH1 0x3 SSTORE PUSH3 0x19A JUMP JUMPDEST PUSH1 0x0 DUP1 SLOAD PUSH1 0x1 PUSH1 0x1 PUSH1 0xA0 SHL SUB DUP4 DUP2 AND PUSH1 0x1 PUSH1 0x1 PUSH1 0xA0 SHL SUB NOT DUP4 AND DUP2 OR DUP5 SSTORE PUSH1 0x40 MLOAD SWAP2 SWAP1 SWAP3 AND SWAP3 DUP4 SWAP2 PUSH32 0x8BE0079C531659141344CD1FD0A4F28419497F9722A3DAAFE3B4186F6B6457E0 SWAP2 SWAP1 LOG3 POP POP JUMP JUMPDEST PUSH1 0x1 PUSH1 0x1 PUSH1 0xA0 SHL SUB DUP2 AND DUP2 EQ PUSH3 0x123 JUMPI PUSH1 0x0 DUP1 REVERT JUMPDEST POP JUMP JUMPDEST PUSH1 0x0 DUP1 PUSH1 0x0 DUP1 PUSH1 0x0 PUSH1 0xA0 DUP7 DUP9 SUB SLT ISZERO PUSH3 0x13F JUMPI PUSH1 0x0 DUP1 REVERT JUMPDEST DUP6 MLOAD SWAP5 POP PUSH1 0x20 DUP7 ADD MLOAD PUSH3 0x153 DUP2 PUSH3 0x10D JUMP JUMPDEST PUSH1 0x40 DUP8 ADD MLOAD SWAP1 SWAP5 POP PUSH3 0x166 DUP2 PUSH3 0x10D JUMP JUMPDEST PUSH1 0x60 DUP8 ADD MLOAD SWAP1 SWAP4 POP PUSH3 0x179 DUP2 PUSH3 0x10D JUMP JUMPDEST PUSH1 0x80 DUP8 ADD MLOAD SWAP1 SWAP3 POP PUSH3 0x18C DUP2 PUSH3 0x10D JUMP JUMPDEST DUP1 SWAP2 POP POP SWAP3 SWAP6 POP SWAP3 SWAP6 SWAP1 SWAP4 POP JUMP JUMPDEST PUSH1 0x80 MLOAD PUSH1 0xA0 MLOAD PUSH1 0xC0 MLOAD PUSH1 0xE0 MLOAD PUSH2 0x100 MLOAD PUSH2 0x120 MLOAD PUSH2 0x140 MLOAD PUSH2 0x1DD3 PUSH3 0x2C0 PUSH1 0x0 CODECOPY PUSH1 0x0 DUP2 DUP2 PUSH2 0x267 ADD MSTORE PUSH2 0xF82 ADD MSTORE PUSH1 0x0 DUP2 DUP2 PUSH2 0x13AA ADD MSTORE DUP2 DUP2 PUSH2 0x144A ADD MSTORE PUSH2 0x14F1 ADD MSTORE PUSH1 0x0 DUP2 DUP2 PUSH2 0x202 ADD MSTORE DUP2 DUP2 PUSH2 0x70D ADD MSTORE DUP2 DUP2 PUSH2 0x7CD ADD MSTORE DUP2 DUP2 PUSH2 0x85E ADD MSTORE PUSH2 0xA99 ADD MSTORE PUSH1 0x0 DUP2 DUP2 PUSH2 0x2AF ADD MSTORE PUSH2 0xF0C ADD MSTORE PUSH1 0x0 DUP2 DUP2 PUSH2 0x42E ADD MSTORE DUP2 DUP2 PUSH2 0x683 ADD MSTORE DUP2 DUP2 PUSH2 0x73F ADD MSTORE PUSH2 0x1262 ADD MSTORE PUSH1 0x0 DUP2 DUP2 PUSH2 0x3BC ADD MSTORE DUP2 DUP2 PUSH2 0x4CC ADD MSTORE DUP2 DUP2 PUSH2 0x5E1 ADD MSTORE DUP2 DUP2 PUSH2 0xE0C ADD MSTORE DUP2 DUP2 PUSH2 0xE51 ADD MSTORE DUP2 DUP2 PUSH2 0x11F0 ADD MSTORE DUP2 DUP2 PUSH2 0x1300 ADD MSTORE DUP2 DUP2 PUSH2 0x1479 ADD MSTORE DUP2 DUP2 PUSH2 0x1527 ADD MSTORE DUP2 DUP2 PUSH2 0x16C8 ADD MSTORE PUSH2 0x171A ADD MSTORE PUSH1 0x0 DUP2 DUP2 PUSH2 0x988 ADD MSTORE DUP2 DUP2 PUSH2 0xEA0 ADD MSTORE DUP2 DUP2 PUSH2 0xEE0 ADD MSTORE DUP2 DUP2 PUSH2 0xF5B ADD MSTORE DUP2 DUP2 PUSH2 0x104A ADD MSTORE DUP2 DUP2 PUSH2 0x1627 ADD MSTORE DUP2 DUP2 PUSH2 0x1667 ADD MSTORE DUP2 DUP2 PUSH2 0x16A7 ADD MSTORE PUSH2 0x16F9 ADD MSTORE PUSH2 0x1DD3 PUSH1 0x0 RETURN INVALID PUSH1 0x80 PUSH1 0x40 MSTORE PUSH1 0x4 CALLDATASIZE LT PUSH2 0xE1 JUMPI PUSH1 0x0 CALLDATALOAD PUSH1 0xE0 SHR DUP1 PUSH4 0x8DA5CB5B GT PUSH2 0x7F JUMPI DUP1 PUSH4 0xEA1B28E0 GT PUSH2 0x59 JUMPI DUP1 PUSH4 0xEA1B28E0 EQ PUSH2 0x2A0 JUMPI DUP1 PUSH4 0xEC45EF89 EQ PUSH2 0x2D3 JUMPI DUP1 PUSH4 0xF2FDE38B EQ PUSH2 0x2E8 JUMPI DUP1 PUSH4 0xFD08A201 EQ PUSH2 0x308 JUMPI PUSH1 0x0 DUP1 REVERT JUMPDEST DUP1 PUSH4 0x8DA5CB5B EQ PUSH2 0x23A JUMPI DUP1 PUSH4 0xAD2F852A EQ PUSH2 0x258 JUMPI DUP1 PUSH4 0xD0E30DB0 EQ PUSH2 0x28B JUMPI PUSH1 0x0 DUP1 REVERT JUMPDEST DUP1 PUSH4 0x3C50EEC1 GT PUSH2 0xBB JUMPI DUP1 PUSH4 0x3C50EEC1 EQ PUSH2 0x19B JUMPI DUP1 PUSH4 0x4EA0ABFB EQ PUSH2 0x1C9 JUMPI DUP1 PUSH4 0x715018A6 EQ PUSH2 0x1DE JUMPI DUP1 PUSH4 0x8D020E6B EQ PUSH2 0x1F3 JUMPI PUSH1 0x0 DUP1 REVERT JUMPDEST DUP1 PUSH4 0xC45B610 EQ PUSH2 0xED JUMPI DUP1 PUSH4 0x3221C93F EQ PUSH2 0x134 JUMPI DUP1 PUSH4 0x3A4B66F1 EQ PUSH2 0x184 JUMPI PUSH1 0x0 DUP1 REVERT JUMPDEST CALLDATASIZE PUSH2 0xE8 JUMPI STOP JUMPDEST PUSH1 0x0 DUP1 REVERT JUMPDEST CALLVALUE DUP1 ISZERO PUSH2 0xF9 JUMPI PUSH1 0x0 DUP1 REVERT JUMPDEST POP PUSH2 0x102 PUSH2 0x31D JUMP JUMPDEST PUSH1 0x40 DUP1 MLOAD SWAP7 DUP8 MSTORE PUSH1 0x20 DUP8 ADD SWAP6 SWAP1 SWAP6 MSTORE SWAP4 DUP6 ADD SWAP3 SWAP1 SWAP3 MSTORE PUSH1 0x60 DUP5 ADD MSTORE PUSH1 0x80 DUP4 ADD MSTORE PUSH1 0xA0 DUP3 ADD MSTORE PUSH1 0xC0 ADD JUMPDEST PUSH1 0x40 MLOAD DUP1 SWAP2 SUB SWAP1 RETURN JUMPDEST CALLVALUE DUP1 ISZERO PUSH2 0x140 JUMPI PUSH1 0x0 DUP1 REVERT JUMPDEST POP PUSH1 0x40 DUP1 MLOAD DUP1 DUP3 ADD DUP3 MSTORE PUSH1 0x0 DUP1 DUP3 MSTORE PUSH1 0x20 SWAP2 DUP3 ADD DUP2 SWAP1 MSTORE DUP3 MLOAD DUP1 DUP5 ADD DUP5 MSTORE PUSH1 0x2 SLOAD SWAP1 SWAP2 SIGNEXTEND DUP1 DUP3 MSTORE PUSH1 0x3 SLOAD SWAP2 DUP4 ADD SWAP2 DUP3 MSTORE DUP4 MLOAD SWAP1 DUP2 MSTORE SWAP1 MLOAD SWAP2 DUP2 ADD SWAP2 SWAP1 SWAP2 MSTORE ADD PUSH2 0x12B JUMP JUMPDEST CALLVALUE DUP1 ISZERO PUSH2 0x190 JUMPI PUSH1 0x0 DUP1 REVERT JUMPDEST POP PUSH2 0x199 PUSH2 0x66B JUMP JUMPDEST STOP JUMPDEST CALLVALUE DUP1 ISZERO PUSH2 0x1A7 JUMPI PUSH1 0x0 DUP1 REVERT JUMPDEST POP PUSH2 0x1BB PUSH2 0x1B6 CALLDATASIZE PUSH1 0x4 PUSH2 0x1A19 JUMP JUMPDEST PUSH2 0x834 JUMP JUMPDEST PUSH1 0x40 MLOAD SWAP1 DUP2 MSTORE PUSH1 0x20 ADD PUSH2 0x12B JUMP JUMPDEST CALLVALUE DUP1 ISZERO PUSH2 0x1D5 JUMPI PUSH1 0x0 DUP1 REVERT JUMPDEST POP PUSH2 0x199 PUSH2 0x849 JUMP JUMPDEST CALLVALUE DUP1 ISZERO PUSH2 0x1EA JUMPI PUSH1 0x0 DUP1 REVERT JUMPDEST POP PUSH2 0x199 PUSH2 0x954 JUMP JUMPDEST CALLVALUE DUP1 ISZERO PUSH2 0x1FF JUMPI PUSH1 0x0 DUP1 REVERT JUMPDEST POP PUSH32 0x0 JUMPDEST PUSH1 0x40 MLOAD PUSH1 0x1 PUSH1 0x1 PUSH1 0xA0 SHL SUB SWAP1 SWAP2 AND DUP2 MSTORE PUSH1 0x20 ADD PUSH2 0x12B JUMP JUMPDEST CALLVALUE DUP1 ISZERO PUSH2 0x246 JUMPI PUSH1 0x0 DUP1 REVERT JUMPDEST POP PUSH1 0x0 SLOAD PUSH1 0x1 PUSH1 0x1 PUSH1 0xA0 SHL SUB AND PUSH2 0x222 JUMP JUMPDEST CALLVALUE DUP1 ISZERO PUSH2 0x264 JUMPI PUSH1 0x0 DUP1 REVERT JUMPDEST POP PUSH32 0x0 PUSH2 0x222 JUMP JUMPDEST CALLVALUE DUP1 ISZERO PUSH2 0x297 JUMPI PUSH1 0x0 DUP1 REVERT JUMPDEST POP PUSH2 0x199 PUSH2 0x968 JUMP JUMPDEST CALLVALUE DUP1 ISZERO PUSH2 0x2AC JUMPI PUSH1 0x0 DUP1 REVERT JUMPDEST POP PUSH32 0x0 PUSH2 0x1BB JUMP JUMPDEST CALLVALUE DUP1 ISZERO PUSH2 0x2DF JUMPI PUSH1 0x0 DUP1 REVERT JUMPDEST POP PUSH2 0x199 PUSH2 0x970 JUMP JUMPDEST CALLVALUE DUP1 ISZERO PUSH2 0x2F4 JUMPI PUSH1 0x0 DUP1 REVERT JUMPDEST POP PUSH2 0x199 PUSH2 0x303 CALLDATASIZE PUSH1 0x4 PUSH2 0x1A55 JUMP JUMPDEST PUSH2 0xA09 JUMP JUMPDEST CALLVALUE DUP1 ISZERO PUSH2 0x314 JUMPI PUSH1 0x0 DUP1 REVERT JUMPDEST POP PUSH2 0x199 PUSH2 0xA84 JUMP JUMPDEST PUSH1 0x40 MLOAD PUSH4 0x70A08231 PUSH1 0xE0 SHL DUP2 MSTORE ADDRESS PUSH1 0x4 DUP3 ADD MSTORE PUSH1 0x0 SWAP1 DUP2 SWAP1 DUP2 SWAP1 DUP2 SWAP1 DUP2 SWAP1 DUP2 SWAP1 DUP2 SWAP1 PUSH1 0x0 DUP1 MLOAD PUSH1 0x20 PUSH2 0x1D7E DUP4 CODECOPY DUP2 MLOAD SWAP2 MSTORE SWAP1 PUSH4 0x70A08231 SWAP1 PUSH1 0x24 ADD PUSH1 0x20 PUSH1 0x40 MLOAD DUP1 DUP4 SUB DUP2 DUP7 GAS STATICCALL ISZERO DUP1 ISZERO PUSH2 0x375 JUMPI RETURNDATASIZE PUSH1 0x0 DUP1 RETURNDATACOPY RETURNDATASIZE PUSH1 0x0 REVERT JUMPDEST POP POP POP POP PUSH1 0x40 MLOAD RETURNDATASIZE PUSH1 0x1F NOT PUSH1 0x1F DUP3 ADD AND DUP3 ADD DUP1 PUSH1 0x40 MSTORE POP DUP2 ADD SWAP1 PUSH2 0x399 SWAP2 SWAP1 PUSH2 0x1A77 JUMP JUMPDEST PUSH1 0x40 MLOAD PUSH4 0x70A08231 PUSH1 0xE0 SHL DUP2 MSTORE ADDRESS PUSH1 0x4 DUP3 ADD MSTORE SWAP1 SWAP2 POP PUSH1 0x0 SWAP1 PUSH1 0x1 PUSH1 0x1 PUSH1 0xA0 SHL SUB PUSH32 0x0 AND SWAP1 PUSH4 0x70A08231 SWAP1 PUSH1 0x24 ADD PUSH1 0x20 PUSH1 0x40 MLOAD DUP1 DUP4 SUB DUP2 DUP7 GAS STATICCALL ISZERO DUP1 ISZERO PUSH2 0x403 JUMPI RETURNDATASIZE PUSH1 0x0 DUP1 RETURNDATACOPY RETURNDATASIZE PUSH1 0x0 REVERT JUMPDEST POP POP POP POP PUSH1 0x40 MLOAD RETURNDATASIZE PUSH1 0x1F NOT PUSH1 0x1F DUP3 ADD AND DUP3 ADD DUP1 PUSH1 0x40 MSTORE POP DUP2 ADD SWAP1 PUSH2 0x427 SWAP2 SWAP1 PUSH2 0x1A77 JUMP JUMPDEST SWAP1 POP PUSH1 0x0 DUP1 PUSH32 0x0 PUSH1 0x1 PUSH1 0x1 PUSH1 0xA0 SHL SUB AND PUSH4 0x902F1AC PUSH1 0x40 MLOAD DUP2 PUSH4 0xFFFFFFFF AND PUSH1 0xE0 SHL DUP2 MSTORE PUSH1 0x4 ADD PUSH1 0x60 PUSH1 0x40 MLOAD DUP1 DUP4 SUB DUP2 DUP7 GAS STATICCALL ISZERO DUP1 ISZERO PUSH2 0x48A JUMPI RETURNDATASIZE PUSH1 0x0 DUP1 RETURNDATACOPY RETURNDATASIZE PUSH1 0x0 REVERT JUMPDEST POP POP POP POP PUSH1 0x40 MLOAD RETURNDATASIZE PUSH1 0x1F NOT PUSH1 0x1F DUP3 ADD AND DUP3 ADD DUP1 PUSH1 0x40 MSTORE POP DUP2 ADD SWAP1 PUSH2 0x4AE SWAP2 SWAP1 PUSH2 0x1AA7 JUMP JUMPDEST POP PUSH1 0x1 PUSH1 0x1 PUSH1 0x70 SHL SUB SWAP2 DUP3 AND SWAP4 POP AND SWAP1 POP PUSH1 0x0 DUP1 PUSH1 0x1 PUSH1 0x1 PUSH1 0xA0 SHL SUB PUSH32 0x0 AND PUSH1 0x0 DUP1 MLOAD PUSH1 0x20 PUSH2 0x1D7E DUP4 CODECOPY DUP2 MLOAD SWAP2 MSTORE LT PUSH2 0x507 JUMPI DUP3 DUP5 PUSH2 0x50A JUMP JUMPDEST DUP4 DUP4 JUMPDEST SWAP1 SWAP3 POP SWAP1 POP DUP5 DUP3 PUSH2 0x51B DUP4 DUP10 PUSH2 0x1B0D JUMP JUMPDEST PUSH2 0x525 SWAP2 SWAP1 PUSH2 0x1B2C JUMP JUMPDEST LT ISZERO PUSH2 0x547 JUMPI DUP2 PUSH2 0x536 DUP3 DUP9 PUSH2 0x1B0D JUMP JUMPDEST PUSH2 0x540 SWAP2 SWAP1 PUSH2 0x1B2C JUMP JUMPDEST SWAP5 POP PUSH2 0x55F JUMP JUMPDEST DUP1 PUSH2 0x552 DUP4 DUP8 PUSH2 0x1B0D JUMP JUMPDEST PUSH2 0x55C SWAP2 SWAP1 PUSH2 0x1B2C JUMP JUMPDEST SWAP6 POP JUMPDEST PUSH1 0x40 MLOAD PUSH4 0x70A08231 PUSH1 0xE0 SHL DUP2 MSTORE ADDRESS PUSH1 0x4 DUP3 ADD MSTORE PUSH1 0x0 DUP1 MLOAD PUSH1 0x20 PUSH2 0x1D7E DUP4 CODECOPY DUP2 MLOAD SWAP2 MSTORE SWAP1 PUSH4 0x70A08231 SWAP1 PUSH1 0x24 ADD PUSH1 0x20 PUSH1 0x40 MLOAD DUP1 DUP4 SUB DUP2 DUP7 GAS STATICCALL ISZERO DUP1 ISZERO PUSH2 0x5A8 JUMPI RETURNDATASIZE PUSH1 0x0 DUP1 RETURNDATACOPY RETURNDATASIZE PUSH1 0x0 REVERT JUMPDEST POP POP POP POP PUSH1 0x40 MLOAD RETURNDATASIZE PUSH1 0x1F NOT PUSH1 0x1F DUP3 ADD AND DUP3 ADD DUP1 PUSH1 0x40 MSTORE POP DUP2 ADD SWAP1 PUSH2 0x5CC SWAP2 SWAP1 PUSH2 0x1A77 JUMP JUMPDEST PUSH1 0x40 MLOAD PUSH4 0x70A08231 PUSH1 0xE0 SHL DUP2 MSTORE ADDRESS PUSH1 0x4 DUP3 ADD MSTORE PUSH32 0x0 PUSH1 0x1 PUSH1 0x1 PUSH1 0xA0 SHL SUB AND SWAP1 PUSH4 0x70A08231 SWAP1 PUSH1 0x24 ADD PUSH1 0x20 PUSH1 0x40 MLOAD DUP1 DUP4 SUB DUP2 DUP7 GAS STATICCALL ISZERO DUP1 ISZERO PUSH2 0x630 JUMPI RETURNDATASIZE PUSH1 0x0 DUP1 RETURNDATACOPY RETURNDATASIZE PUSH1 0x0 REVERT JUMPDEST POP POP POP POP PUSH1 0x40 MLOAD RETURNDATASIZE PUSH1 0x1F NOT PUSH1 0x1F DUP3 ADD AND DUP3 ADD DUP1 PUSH1 0x40 MSTORE POP DUP2 ADD SWAP1 PUSH2 0x654 SWAP2 SWAP1 PUSH2 0x1A77 JUMP JUMPDEST SWAP1 SWAP14 SWAP1 SWAP13 POP SWAP6 SWAP11 POP SWAP4 SWAP9 POP SWAP7 POP SWAP2 SWAP5 POP SWAP2 SWAP3 POP POP POP JUMP JUMPDEST PUSH1 0x40 MLOAD PUSH4 0x70A08231 PUSH1 0xE0 SHL DUP2 MSTORE ADDRESS PUSH1 0x4 DUP3 ADD MSTORE PUSH1 0x0 SWAP1 PUSH32 0x0 PUSH1 0x1 PUSH1 0x1 PUSH1 0xA0 SHL SUB AND SWAP1 PUSH4 0x70A08231 SWAP1 PUSH1 0x24 ADD PUSH1 0x20 PUSH1 0x40 MLOAD DUP1 DUP4 SUB DUP2 DUP7 GAS STATICCALL ISZERO DUP1 ISZERO PUSH2 0x6D2 JUMPI RETURNDATASIZE PUSH1 0x0 DUP1 RETURNDATACOPY RETURNDATASIZE PUSH1 0x0 REVERT JUMPDEST POP POP POP POP PUSH1 0x40 MLOAD RETURNDATASIZE PUSH1 0x1F NOT PUSH1 0x1F DUP3 ADD AND DUP3 ADD DUP1 PUSH1 0x40 MSTORE POP DUP2 ADD SWAP1 PUSH2 0x6F6 SWAP2 SWAP1 PUSH2 0x1A77 JUMP JUMPDEST PUSH1 0x40 MLOAD PUSH4 0x95EA7B3 PUSH1 0xE0 SHL DUP2 MSTORE PUSH1 0x1 PUSH1 0x1 PUSH1 0xA0 SHL SUB PUSH32 0x0 DUP2 AND PUSH1 0x4 DUP4 ADD MSTORE PUSH1 0x24 DUP3 ADD DUP4 SWAP1 MSTORE SWAP2 SWAP3 POP PUSH32 0x0 SWAP1 SWAP2 AND SWAP1 PUSH4 0x95EA7B3 SWAP1 PUSH1 0x44 ADD PUSH1 0x20 PUSH1 0x40 MLOAD DUP1 DUP4 SUB DUP2 PUSH1 0x0 DUP8 GAS CALL ISZERO DUP1 ISZERO PUSH2 0x78A JUMPI RETURNDATASIZE PUSH1 0x0 DUP1 RETURNDATACOPY RETURNDATASIZE PUSH1 0x0 REVERT JUMPDEST POP POP POP POP PUSH1 0x40 MLOAD RETURNDATASIZE PUSH1 0x1F NOT PUSH1 0x1F DUP3 ADD AND DUP3 ADD DUP1 PUSH1 0x40 MSTORE POP DUP2 ADD SWAP1 PUSH2 0x7AE SWAP2 SWAP1 PUSH2 0x1B4E JUMP JUMPDEST POP PUSH1 0x40 MLOAD PUSH4 0x111FC57D PUSH1 0xE3 SHL DUP2 MSTORE PUSH1 0x1 PUSH1 0x1 PUSH1 0x80 SHL SUB DUP3 AND PUSH1 0x4 DUP3 ADD MSTORE PUSH32 0x0 PUSH1 0x1 PUSH1 0x1 PUSH1 0xA0 SHL SUB AND SWAP1 PUSH4 0x88FE2BE8 SWAP1 PUSH1 0x24 ADD PUSH1 0x0 PUSH1 0x40 MLOAD DUP1 DUP4 SUB DUP2 PUSH1 0x0 DUP8 DUP1 EXTCODESIZE ISZERO DUP1 ISZERO PUSH2 0x819 JUMPI PUSH1 0x0 DUP1 REVERT JUMPDEST POP GAS CALL ISZERO DUP1 ISZERO PUSH2 0x82D JUMPI RETURNDATASIZE PUSH1 0x0 DUP1 RETURNDATACOPY RETURNDATASIZE PUSH1 0x0 REVERT JUMPDEST POP POP POP POP POP JUMP JUMPDEST PUSH1 0x0 PUSH2 0x841 DUP5 DUP5 DUP5 PUSH2 0xB92 JUMP JUMPDEST SWAP5 SWAP4 POP POP POP POP JUMP JUMPDEST PUSH1 0x40 MLOAD PUSH4 0x48B45739 PUSH1 0xE1 SHL DUP2 MSTORE ADDRESS PUSH1 0x4 DUP3 ADD MSTORE PUSH32 0x0 SWAP1 PUSH1 0x0 SWAP1 PUSH1 0x1 PUSH1 0x1 PUSH1 0xA0 SHL SUB DUP4 AND SWAP1 PUSH4 0x9168AE72 SWAP1 PUSH1 0x24 ADD PUSH1 0x80 PUSH1 0x40 MLOAD DUP1 DUP4 SUB DUP2 DUP7 GAS STATICCALL ISZERO DUP1 ISZERO PUSH2 0x8B2 JUMPI RETURNDATASIZE PUSH1 0x0 DUP1 RETURNDATACOPY RETURNDATASIZE PUSH1 0x0 REVERT JUMPDEST POP POP POP POP PUSH1 0x40 MLOAD RETURNDATASIZE PUSH1 0x1F NOT PUSH1 0x1F DUP3 ADD AND DUP3 ADD DUP1 PUSH1 0x40 MSTORE POP DUP2 ADD SWAP1 PUSH2 0x8D6 SWAP2 SWAP1 PUSH2 0x1B87 JUMP JUMPDEST POP PUSH1 0x40 MLOAD PUSH4 0x22C50EB7 PUSH1 0xE1 SHL DUP2 MSTORE PUSH1 0x1 PUSH1 0x1 PUSH1 0x80 SHL SUB DUP3 AND PUSH1 0x4 DUP3 ADD MSTORE SWAP1 SWAP4 POP PUSH1 0x1 PUSH1 0x1 PUSH1 0xA0 SHL SUB DUP6 AND SWAP3 POP PUSH4 0x458A1D6E SWAP2 POP PUSH1 0x24 ADD PUSH1 0x0 PUSH1 0x40 MLOAD DUP1 DUP4 SUB DUP2 PUSH1 0x0 DUP8 DUP1 EXTCODESIZE ISZERO DUP1 ISZERO PUSH2 0x926 JUMPI PUSH1 0x0 DUP1 REVERT JUMPDEST POP GAS CALL ISZERO DUP1 ISZERO PUSH2 0x93A JUMPI RETURNDATASIZE PUSH1 0x0 DUP1 RETURNDATACOPY RETURNDATASIZE PUSH1 0x0 REVERT JUMPDEST POP POP POP POP PUSH2 0x950 DUP2 PUSH1 0x1 PUSH1 0x1 PUSH1 0x80 SHL SUB AND PUSH2 0xDF6 JUMP JUMPDEST POP POP JUMP JUMPDEST PUSH2 0x95C PUSH2 0x10B3 JUMP JUMPDEST PUSH2 0x966 PUSH1 0x0 PUSH2 0x110D JUMP JUMPDEST JUMP JUMPDEST PUSH2 0x966 PUSH2 0x115D JUMP JUMPDEST PUSH1 0x40 MLOAD PUSH4 0x70A08231 PUSH1 0xE0 SHL DUP2 MSTORE ADDRESS PUSH1 0x4 DUP3 ADD MSTORE PUSH1 0x0 SWAP1 PUSH32 0x0 PUSH1 0x1 PUSH1 0x1 PUSH1 0xA0 SHL SUB AND SWAP1 PUSH4 0x70A08231 SWAP1 PUSH1 0x24 ADD PUSH1 0x20 PUSH1 0x40 MLOAD DUP1 DUP4 SUB DUP2 DUP7 GAS STATICCALL ISZERO DUP1 ISZERO PUSH2 0x9D7 JUMPI RETURNDATASIZE PUSH1 0x0 DUP1 RETURNDATACOPY RETURNDATASIZE PUSH1 0x0 REVERT JUMPDEST POP POP POP POP PUSH1 0x40 MLOAD RETURNDATASIZE PUSH1 0x1F NOT PUSH1 0x1F DUP3 ADD AND DUP3 ADD DUP1 PUSH1 0x40 MSTORE POP DUP2 ADD SWAP1 PUSH2 0x9FB SWAP2 SWAP1 PUSH2 0x1A77 JUMP JUMPDEST SWAP1 POP PUSH2 0xA06 DUP2 PUSH2 0x1608 JUMP JUMPDEST POP JUMP JUMPDEST PUSH2 0xA11 PUSH2 0x10B3 JUMP JUMPDEST PUSH1 0x1 PUSH1 0x1 PUSH1 0xA0 SHL SUB DUP2 AND PUSH2 0xA7B JUMPI PUSH1 0x40 MLOAD PUSH3 0x461BCD PUSH1 0xE5 SHL DUP2 MSTORE PUSH1 0x20 PUSH1 0x4 DUP3 ADD MSTORE PUSH1 0x26 PUSH1 0x24 DUP3 ADD MSTORE PUSH32 0x4F776E61626C653A206E6577206F776E657220697320746865207A65726F2061 PUSH1 0x44 DUP3 ADD MSTORE PUSH6 0x646472657373 PUSH1 0xD0 SHL PUSH1 0x64 DUP3 ADD MSTORE PUSH1 0x84 ADD JUMPDEST PUSH1 0x40 MLOAD DUP1 SWAP2 SUB SWAP1 REVERT JUMPDEST PUSH2 0xA06 DUP2 PUSH2 0x110D JUMP JUMPDEST PUSH1 0x40 MLOAD PUSH4 0x48B45739 PUSH1 0xE1 SHL DUP2 MSTORE ADDRESS PUSH1 0x4 DUP3 ADD MSTORE PUSH32 0x0 SWAP1 PUSH1 0x0 SWAP1 PUSH1 0x1 PUSH1 0x1 PUSH1 0xA0 SHL SUB DUP4 AND SWAP1 PUSH4 0x9168AE72 SWAP1 PUSH1 0x24 ADD PUSH1 0x80 PUSH1 0x40 MLOAD DUP1 DUP4 SUB DUP2 DUP7 GAS STATICCALL ISZERO DUP1 ISZERO PUSH2 0xAED JUMPI RETURNDATASIZE PUSH1 0x0 DUP1 RETURNDATACOPY RETURNDATASIZE PUSH1 0x0 REVERT JUMPDEST POP POP POP POP PUSH1 0x40 MLOAD RETURNDATASIZE PUSH1 0x1F NOT PUSH1 0x1F DUP3 ADD AND DUP3 ADD DUP1 PUSH1 0x40 MSTORE POP DUP2 ADD SWAP1 PUSH2 0xB11 SWAP2 SWAP1 PUSH2 0x1B87 JUMP JUMPDEST POP POP PUSH1 0x40 MLOAD PUSH4 0x22C50EB7 PUSH1 0xE1 SHL DUP2 MSTORE PUSH1 0x1 PUSH1 0x1 PUSH1 0x80 SHL SUB DUP4 AND PUSH1 0x4 DUP3 ADD MSTORE SWAP2 SWAP3 POP DUP3 SWAP2 PUSH1 0x1 PUSH1 0x1 PUSH1 0xA0 SHL SUB DUP6 AND SWAP2 POP PUSH4 0x458A1D6E SWAP1 PUSH1 0x24 ADD PUSH1 0x0 PUSH1 0x40 MLOAD DUP1 DUP4 SUB DUP2 PUSH1 0x0 DUP8 DUP1 EXTCODESIZE ISZERO DUP1 ISZERO PUSH2 0xB63 JUMPI PUSH1 0x0 DUP1 REVERT JUMPDEST POP GAS CALL ISZERO DUP1 ISZERO PUSH2 0xB77 JUMPI RETURNDATASIZE PUSH1 0x0 DUP1 RETURNDATACOPY RETURNDATASIZE PUSH1 0x0 REVERT JUMPDEST POP POP POP POP PUSH2 0xB8D DUP2 PUSH1 0x1 PUSH1 0x1 PUSH1 0x80 SHL SUB AND PUSH2 0xDF6 JUMP JUMPDEST POP POP POP JUMP JUMPDEST PUSH1 0x0 PUSH1 0x60 PUSH1 0x1 PUSH1 0x1 PUSH1 0xA0 SHL SUB DUP6 AND PUSH20 0xBB4CDB9CBD36B01BD1CBAEBF2DE08D9173BC095C EQ DUP1 PUSH2 0xBDD JUMPI POP PUSH1 0x1 PUSH1 0x1 PUSH1 0xA0 SHL SUB DUP5 AND PUSH20 0xBB4CDB9CBD36B01BD1CBAEBF2DE08D9173BC095C EQ JUMPDEST ISZERO PUSH2 0xC6F JUMPI PUSH1 0x40 DUP1 MLOAD PUSH1 0x2 DUP1 DUP3 MSTORE PUSH1 0x60 DUP3 ADD DUP4 MSTORE SWAP1 SWAP2 PUSH1 0x20 DUP4 ADD SWAP1 DUP1 CALLDATASIZE DUP4 CALLDATACOPY ADD SWAP1 POP POP SWAP1 POP DUP5 DUP2 PUSH1 0x0 DUP2 MLOAD DUP2 LT PUSH2 0xC16 JUMPI PUSH2 0xC16 PUSH2 0x1BE1 JUMP JUMPDEST PUSH1 0x20 MUL PUSH1 0x20 ADD ADD SWAP1 PUSH1 0x1 PUSH1 0x1 PUSH1 0xA0 SHL SUB AND SWAP1 DUP2 PUSH1 0x1 PUSH1 0x1 PUSH1 0xA0 SHL SUB AND DUP2 MSTORE POP POP DUP4 DUP2 PUSH1 0x1 DUP2 MLOAD DUP2 LT PUSH2 0xC4A JUMPI PUSH2 0xC4A PUSH2 0x1BE1 JUMP JUMPDEST PUSH1 0x20 MUL PUSH1 0x20 ADD ADD SWAP1 PUSH1 0x1 PUSH1 0x1 PUSH1 0xA0 SHL SUB AND SWAP1 DUP2 PUSH1 0x1 PUSH1 0x1 PUSH1 0xA0 SHL SUB AND DUP2 MSTORE POP POP PUSH2 0xD41 JUMP JUMPDEST PUSH1 0x40 DUP1 MLOAD PUSH1 0x3 DUP1 DUP3 MSTORE PUSH1 0x80 DUP3 ADD SWAP1 SWAP3 MSTORE SWAP1 PUSH1 0x20 DUP3 ADD PUSH1 0x60 DUP1 CALLDATASIZE DUP4 CALLDATACOPY ADD SWAP1 POP POP SWAP1 POP DUP5 DUP2 PUSH1 0x0 DUP2 MLOAD DUP2 LT PUSH2 0xCA4 JUMPI PUSH2 0xCA4 PUSH2 0x1BE1 JUMP JUMPDEST PUSH1 0x20 MUL PUSH1 0x20 ADD ADD SWAP1 PUSH1 0x1 PUSH1 0x1 PUSH1 0xA0 SHL SUB AND SWAP1 DUP2 PUSH1 0x1 PUSH1 0x1 PUSH1 0xA0 SHL SUB AND DUP2 MSTORE POP POP PUSH20 0x55D398326F99059FF775485246999027B3197955 DUP2 PUSH1 0x1 DUP2 MLOAD DUP2 LT PUSH2 0xCEC JUMPI PUSH2 0xCEC PUSH2 0x1BE1 JUMP JUMPDEST PUSH1 0x20 MUL PUSH1 0x20 ADD ADD SWAP1 PUSH1 0x1 PUSH1 0x1 PUSH1 0xA0 SHL SUB AND SWAP1 DUP2 PUSH1 0x1 PUSH1 0x1 PUSH1 0xA0 SHL SUB AND DUP2 MSTORE POP POP DUP4 DUP2 PUSH1 0x2 DUP2 MLOAD DUP2 LT PUSH2 0xD20 JUMPI PUSH2 0xD20 PUSH2 0x1BE1 JUMP JUMPDEST PUSH1 0x20 MUL PUSH1 0x20 ADD ADD SWAP1 PUSH1 0x1 PUSH1 0x1 PUSH1 0xA0 SHL SUB AND SWAP1 DUP2 PUSH1 0x1 PUSH1 0x1 PUSH1 0xA0 SHL SUB AND DUP2 MSTORE POP POP JUMPDEST PUSH1 0x40 MLOAD PUSH4 0xD06CA61F PUSH1 0xE0 SHL DUP2 MSTORE PUSH1 0x0 SWAP1 PUSH20 0x10ED43C718714EB63D5AA57B78B54704E256024E SWAP1 PUSH4 0xD06CA61F SWAP1 PUSH2 0xD7D SWAP1 DUP8 SWAP1 DUP7 SWAP1 PUSH1 0x4 ADD PUSH2 0x1C3B JUMP JUMPDEST PUSH1 0x0 PUSH1 0x40 MLOAD DUP1 DUP4 SUB DUP2 DUP7 GAS STATICCALL ISZERO DUP1 ISZERO PUSH2 0xD9A JUMPI RETURNDATASIZE PUSH1 0x0 DUP1 RETURNDATACOPY RETURNDATASIZE PUSH1 0x0 REVERT JUMPDEST POP POP POP POP PUSH1 0x40 MLOAD RETURNDATASIZE PUSH1 0x0 DUP3 RETURNDATACOPY PUSH1 0x1F RETURNDATASIZE SWAP1 DUP2 ADD PUSH1 0x1F NOT AND DUP3 ADD PUSH1 0x40 MSTORE PUSH2 0xDC2 SWAP2 SWAP1 DUP2 ADD SWAP1 PUSH2 0x1C54 JUMP JUMPDEST SWAP1 POP DUP1 PUSH1 0x1 DUP4 MLOAD PUSH2 0xDD3 SWAP2 SWAP1 PUSH2 0x1D12 JUMP JUMPDEST DUP2 MLOAD DUP2 LT PUSH2 0xDE3 JUMPI PUSH2 0xDE3 PUSH2 0x1BE1 JUMP JUMPDEST PUSH1 0x20 MUL PUSH1 0x20 ADD ADD MLOAD SWAP3 POP POP POP SWAP4 SWAP3 POP POP POP JUMP JUMPDEST PUSH1 0x0 PUSH2 0xE3B PUSH1 0x0 DUP1 MLOAD PUSH1 0x20 PUSH2 0x1D7E DUP4 CODECOPY DUP2 MLOAD SWAP2 MSTORE PUSH32 0x0 PUSH2 0xE36 PUSH1 0x4 DUP7 PUSH2 0x1B2C JUMP JUMPDEST PUSH2 0xB92 JUMP JUMPDEST SWAP1 POP PUSH2 0xE82 PUSH1 0x0 DUP1 MLOAD PUSH1 0x20 PUSH2 0x1D7E DUP4 CODECOPY DUP2 MLOAD SWAP2 MSTORE PUSH32 0x0 PUSH2 0xE7B PUSH1 0x4 DUP7 PUSH2 0x1B2C JUMP JUMPDEST DUP5 ADDRESS PUSH2 0x1744 JUMP JUMPDEST PUSH2 0xE8A PUSH2 0x115D JUMP JUMPDEST PUSH1 0x0 PUSH2 0xECA PUSH1 0x0 DUP1 MLOAD PUSH1 0x20 PUSH2 0x1D7E DUP4 CODECOPY DUP2 MLOAD SWAP2 MSTORE PUSH32 0x0 PUSH2 0xE36 PUSH1 0x2 DUP8 PUSH2 0x1B2C JUMP JUMPDEST SWAP1 POP PUSH2 0xF0A PUSH1 0x0 DUP1 MLOAD PUSH1 0x20 PUSH2 0x1D7E DUP4 CODECOPY DUP2 MLOAD SWAP2 MSTORE PUSH32 0x0 PUSH2 0xE7B PUSH1 0x2 DUP8 PUSH2 0x1B2C JUMP JUMPDEST PUSH32 0x0 DUP2 PUSH1 0x1 SLOAD PUSH2 0xF39 SWAP2 SWAP1 PUSH2 0x1D29 JUMP JUMPDEST GT PUSH2 0x1021 JUMPI PUSH2 0xF51 PUSH2 0xF4C PUSH1 0x2 DUP4 PUSH2 0x1B2C JUMP JUMPDEST PUSH2 0x1608 JUMP JUMPDEST PUSH1 0x1 PUSH1 0x1 PUSH1 0xA0 SHL SUB PUSH32 0x0 AND PUSH4 0xA9059CBB PUSH32 0x0 PUSH2 0xFAC PUSH1 0x2 DUP6 PUSH2 0x1B2C JUMP JUMPDEST PUSH1 0x40 MLOAD PUSH1 0x1 PUSH1 0x1 PUSH1 0xE0 SHL SUB NOT PUSH1 0xE0 DUP6 SWAP1 SHL AND DUP2 MSTORE PUSH1 0x1 PUSH1 0x1 PUSH1 0xA0 SHL SUB SWAP1 SWAP3 AND PUSH1 0x4 DUP4 ADD MSTORE PUSH1 0x24 DUP3 ADD MSTORE PUSH1 0x44 ADD PUSH1 0x20 PUSH1 0x40 MLOAD DUP1 DUP4 SUB DUP2 PUSH1 0x0 DUP8 GAS CALL ISZERO DUP1 ISZERO PUSH2 0xFF7 JUMPI RETURNDATASIZE PUSH1 0x0 DUP1 RETURNDATACOPY RETURNDATASIZE PUSH1 0x0 REVERT JUMPDEST POP POP POP POP PUSH1 0x40 MLOAD RETURNDATASIZE PUSH1 0x1F NOT PUSH1 0x1F DUP3 ADD AND DUP3 ADD DUP1 PUSH1 0x40 MSTORE POP DUP2 ADD SWAP1 PUSH2 0x101B SWAP2 SWAP1 PUSH2 0x1B4E JUMP JUMPDEST POP POP POP POP JUMP JUMPDEST PUSH1 0x40 MLOAD PUSH4 0xE057FBFF PUSH1 0xE0 SHL DUP2 MSTORE PUSH1 0x4 DUP2 ADD DUP3 SWAP1 MSTORE PUSH1 0x2 SLOAD PUSH1 0x0 SIGNEXTEND PUSH1 0x24 DUP3 ADD MSTORE PUSH1 0x3 SLOAD PUSH1 0x44 DUP3 ADD MSTORE PUSH32 0x0 PUSH1 0x1 PUSH1 0x1 PUSH1 0xA0 SHL SUB AND SWAP1 PUSH4 0xE057FBFF SWAP1 PUSH1 0x64 ADD PUSH1 0x0 PUSH1 0x40 MLOAD DUP1 DUP4 SUB DUP2 PUSH1 0x0 DUP8 DUP1 EXTCODESIZE ISZERO DUP1 ISZERO PUSH2 0x1096 JUMPI PUSH1 0x0 DUP1 REVERT JUMPDEST POP GAS CALL ISZERO DUP1 ISZERO PUSH2 0x10AA JUMPI RETURNDATASIZE PUSH1 0x0 DUP1 RETURNDATACOPY RETURNDATASIZE PUSH1 0x0 REVERT JUMPDEST POP POP POP POP POP POP POP JUMP JUMPDEST PUSH1 0x0 SLOAD PUSH1 0x1 PUSH1 0x1 PUSH1 0xA0 SHL SUB AND CALLER EQ PUSH2 0x966 JUMPI PUSH1 0x40 MLOAD PUSH3 0x461BCD PUSH1 0xE5 SHL DUP2 MSTORE PUSH1 0x20 PUSH1 0x4 DUP3 ADD DUP2 SWAP1 MSTORE PUSH1 0x24 DUP3 ADD MSTORE PUSH32 0x4F776E61626C653A2063616C6C6572206973206E6F7420746865206F776E6572 PUSH1 0x44 DUP3 ADD MSTORE PUSH1 0x64 ADD PUSH2 0xA72 JUMP JUMPDEST PUSH1 0x0 DUP1 SLOAD PUSH1 0x1 PUSH1 0x1 PUSH1 0xA0 SHL SUB DUP4 DUP2 AND PUSH1 0x1 PUSH1 0x1 PUSH1 0xA0 SHL SUB NOT DUP4 AND DUP2 OR DUP5 SSTORE PUSH1 0x40 MLOAD SWAP2 SWAP1 SWAP3 AND SWAP3 DUP4 SWAP2 PUSH32 0x8BE0079C531659141344CD1FD0A4F28419497F9722A3DAAFE3B4186F6B6457E0 SWAP2 SWAP1 LOG3 POP POP JUMP JUMPDEST PUSH1 0x40 MLOAD PUSH4 0x70A08231 PUSH1 0xE0 SHL DUP2 MSTORE ADDRESS PUSH1 0x4 DUP3 ADD MSTORE PUSH1 0x0 SWAP1 PUSH1 0x0 DUP1 MLOAD PUSH1 0x20 PUSH2 0x1D7E DUP4 CODECOPY DUP2 MLOAD SWAP2 MSTORE SWAP1 PUSH4 0x70A08231 SWAP1 PUSH1 0x24 ADD PUSH1 0x20 PUSH1 0x40 MLOAD DUP1 DUP4 SUB DUP2 DUP7 GAS STATICCALL ISZERO DUP1 ISZERO PUSH2 0x11A9 JUMPI RETURNDATASIZE PUSH1 0x0 DUP1 RETURNDATACOPY RETURNDATASIZE PUSH1 0x0 REVERT JUMPDEST POP POP POP POP PUSH1 0x40 MLOAD RETURNDATASIZE PUSH1 0x1F NOT PUSH1 0x1F DUP3 ADD AND DUP3 ADD DUP1 PUSH1 0x40 MSTORE POP DUP2 ADD SWAP1 PUSH2 0x11CD SWAP2 SWAP1 PUSH2 0x1A77 JUMP JUMPDEST PUSH1 0x40 MLOAD PUSH4 0x70A08231 PUSH1 0xE0 SHL DUP2 MSTORE ADDRESS PUSH1 0x4 DUP3 ADD MSTORE SWAP1 SWAP2 POP PUSH1 0x0 SWAP1 PUSH1 0x1 PUSH1 0x1 PUSH1 0xA0 SHL SUB PUSH32 0x0 AND SWAP1 PUSH4 0x70A08231 SWAP1 PUSH1 0x24 ADD PUSH1 0x20 PUSH1 0x40 MLOAD DUP1 DUP4 SUB DUP2 DUP7 GAS STATICCALL ISZERO DUP1 ISZERO PUSH2 0x1237 JUMPI RETURNDATASIZE PUSH1 0x0 DUP1 RETURNDATACOPY RETURNDATASIZE PUSH1 0x0 REVERT JUMPDEST POP POP POP POP PUSH1 0x40 MLOAD RETURNDATASIZE PUSH1 0x1F NOT PUSH1 0x1F DUP3 ADD AND DUP3 ADD DUP1 PUSH1 0x40 MSTORE POP DUP2 ADD SWAP1 PUSH2 0x125B SWAP2 SWAP1 PUSH2 0x1A77 JUMP JUMPDEST SWAP1 POP PUSH1 0x0 DUP1 PUSH32 0x0 PUSH1 0x1 PUSH1 0x1 PUSH1 0xA0 SHL SUB AND PUSH4 0x902F1AC PUSH1 0x40 MLOAD DUP2 PUSH4 0xFFFFFFFF AND PUSH1 0xE0 SHL DUP2 MSTORE PUSH1 0x4 ADD PUSH1 0x60 PUSH1 0x40 MLOAD DUP1 DUP4 SUB DUP2 DUP7 GAS STATICCALL ISZERO DUP1 ISZERO PUSH2 0x12BE JUMPI RETURNDATASIZE PUSH1 0x0 DUP1 RETURNDATACOPY RETURNDATASIZE PUSH1 0x0 REVERT JUMPDEST POP POP POP POP PUSH1 0x40 MLOAD RETURNDATASIZE PUSH1 0x1F NOT PUSH1 0x1F DUP3 ADD AND DUP3 ADD DUP1 PUSH1 0x40 MSTORE POP DUP2 ADD SWAP1 PUSH2 0x12E2 SWAP2 SWAP1 PUSH2 0x1AA7 JUMP JUMPDEST POP PUSH1 0x1 PUSH1 0x1 PUSH1 0x70 SHL SUB SWAP2 DUP3 AND SWAP4 POP AND SWAP1 POP PUSH1 0x0 DUP1 PUSH1 0x1 PUSH1 0x1 PUSH1 0xA0 SHL SUB PUSH32 0x0 AND PUSH1 0x0 DUP1 MLOAD PUSH1 0x20 PUSH2 0x1D7E DUP4 CODECOPY DUP2 MLOAD SWAP2 MSTORE LT PUSH2 0x133B JUMPI DUP3 DUP5 PUSH2 0x133E JUMP JUMPDEST DUP4 DUP4 JUMPDEST SWAP1 SWAP3 POP SWAP1 POP DUP5 DUP3 PUSH2 0x134F DUP4 DUP10 PUSH2 0x1B0D JUMP JUMPDEST PUSH2 0x1359 SWAP2 SWAP1 PUSH2 0x1B2C JUMP JUMPDEST LT ISZERO PUSH2 0x137B JUMPI DUP2 PUSH2 0x136A DUP3 DUP9 PUSH2 0x1B0D JUMP JUMPDEST PUSH2 0x1374 SWAP2 SWAP1 PUSH2 0x1B2C JUMP JUMPDEST SWAP5 POP PUSH2 0x1393 JUMP JUMPDEST DUP1 PUSH2 0x1386 DUP4 DUP8 PUSH2 0x1B0D JUMP JUMPDEST PUSH2 0x1390 SWAP2 SWAP1 PUSH2 0x1B2C JUMP JUMPDEST SWAP6 POP JUMPDEST PUSH1 0x40 MLOAD PUSH4 0x95EA7B3 PUSH1 0xE0 SHL DUP2 MSTORE PUSH1 0x1 PUSH1 0x1 PUSH1 0xA0 SHL SUB PUSH32 0x0 AND PUSH1 0x4 DUP3 ADD MSTORE PUSH1 0x24 DUP2 ADD DUP8 SWAP1 MSTORE PUSH1 0x0 DUP1 MLOAD PUSH1 0x20 PUSH2 0x1D7E DUP4 CODECOPY DUP2 MLOAD SWAP2 MSTORE SWAP1 PUSH4 0x95EA7B3 SWAP1 PUSH1 0x44 ADD PUSH1 0x20 PUSH1 0x40 MLOAD DUP1 DUP4 SUB DUP2 PUSH1 0x0 DUP8 GAS CALL ISZERO DUP1 ISZERO PUSH2 0x140E JUMPI RETURNDATASIZE PUSH1 0x0 DUP1 RETURNDATACOPY RETURNDATASIZE PUSH1 0x0 REVERT JUMPDEST POP POP POP POP PUSH1 0x40 MLOAD RETURNDATASIZE PUSH1 0x1F NOT PUSH1 0x1F DUP3 ADD AND DUP3 ADD DUP1 PUSH1 0x40 MSTORE POP DUP2 ADD SWAP1 PUSH2 0x1432 SWAP2 SWAP1 PUSH2 0x1B4E JUMP JUMPDEST POP PUSH1 0x40 MLOAD PUSH4 0x95EA7B3 PUSH1 0xE0 SHL DUP2 MSTORE PUSH1 0x1 PUSH1 0x1 PUSH1 0xA0 SHL SUB PUSH32 0x0 DUP2 AND PUSH1 0x4 DUP4 ADD MSTORE PUSH1 0x24 DUP3 ADD DUP8 SWAP1 MSTORE PUSH32 0x0 AND SWAP1 PUSH4 0x95EA7B3 SWAP1 PUSH1 0x44 ADD PUSH1 0x20 PUSH1 0x40 MLOAD DUP1 DUP4 SUB DUP2 PUSH1 0x0 DUP8 GAS CALL ISZERO DUP1 ISZERO PUSH2 0x14C2 JUMPI RETURNDATASIZE PUSH1 0x0 DUP1 RETURNDATACOPY RETURNDATASIZE PUSH1 0x0 REVERT JUMPDEST POP POP POP POP PUSH1 0x40 MLOAD RETURNDATASIZE PUSH1 0x1F NOT PUSH1 0x1F DUP3 ADD AND DUP3 ADD DUP1 PUSH1 0x40 MSTORE POP DUP2 ADD SWAP1 PUSH2 0x14E6 SWAP2 SWAP1 PUSH2 0x1B4E JUMP JUMPDEST POP PUSH1 0x1 PUSH1 0x1 PUSH1 0xA0 SHL SUB PUSH32 0x0 AND PUSH4 0xE8E33700 PUSH1 0x0 DUP1 MLOAD PUSH1 0x20 PUSH2 0x1D7E DUP4 CODECOPY DUP2 MLOAD SWAP2 MSTORE PUSH32 0x0 DUP10 DUP10 PUSH2 0x3E8 PUSH2 0x1557 DUP4 PUSH2 0x3E3 PUSH2 0x1B0D JUMP JUMPDEST PUSH2 0x1561 SWAP2 SWAP1 PUSH2 0x1B2C JUMP JUMPDEST PUSH2 0x3E8 PUSH2 0x1570 DUP14 PUSH2 0x3E3 PUSH2 0x1B0D JUMP JUMPDEST PUSH2 0x157A SWAP2 SWAP1 PUSH2 0x1B2C JUMP JUMPDEST PUSH1 0x40 MLOAD PUSH1 0x1 PUSH1 0x1 PUSH1 0xE0 SHL SUB NOT PUSH1 0xE0 DUP10 SWAP1 SHL AND DUP2 MSTORE PUSH1 0x1 PUSH1 0x1 PUSH1 0xA0 SHL SUB SWAP7 DUP8 AND PUSH1 0x4 DUP3 ADD MSTORE SWAP6 SWAP1 SWAP5 AND PUSH1 0x24 DUP7 ADD MSTORE PUSH1 0x44 DUP6 ADD SWAP3 SWAP1 SWAP3 MSTORE PUSH1 0x64 DUP5 ADD MSTORE PUSH1 0x84 DUP4 ADD MSTORE PUSH1 0xA4 DUP3 ADD MSTORE ADDRESS PUSH1 0xC4 DUP3 ADD MSTORE TIMESTAMP PUSH1 0xE4 DUP3 ADD MSTORE PUSH2 0x104 ADD PUSH1 0x0 PUSH1 0x40 MLOAD DUP1 DUP4 SUB DUP2 PUSH1 0x0 DUP8 DUP1 EXTCODESIZE ISZERO DUP1 ISZERO PUSH2 0x15E8 JUMPI PUSH1 0x0 DUP1 REVERT JUMPDEST POP GAS CALL ISZERO DUP1 ISZERO PUSH2 0x15FC JUMPI RETURNDATASIZE PUSH1 0x0 DUP1 RETURNDATACOPY RETURNDATASIZE PUSH1 0x0 REVERT JUMPDEST POP POP POP POP POP POP POP POP POP POP JUMP JUMPDEST DUP1 PUSH1 0x1 PUSH1 0x0 DUP3 DUP3 SLOAD PUSH2 0x161A SWAP2 SWAP1 PUSH2 0x1D29 JUMP JUMPDEST SWAP1 SWAP2 SSTORE POP PUSH1 0x0 SWAP1 POP PUSH2 0x1660 PUSH32 0x0 PUSH1 0x0 DUP1 MLOAD PUSH1 0x20 PUSH2 0x1D7E DUP4 CODECOPY DUP2 MLOAD SWAP2 MSTORE PUSH2 0xE36 PUSH1 0x2 DUP7 PUSH2 0x1B2C JUMP JUMPDEST SWAP1 POP PUSH2 0x16A0 PUSH32 0x0 PUSH1 0x0 DUP1 MLOAD PUSH1 0x20 PUSH2 0x1D7E DUP4 CODECOPY DUP2 MLOAD SWAP2 MSTORE PUSH2 0xE7B PUSH1 0x2 DUP7 PUSH2 0x1B2C JUMP JUMPDEST PUSH1 0x0 PUSH2 0x16F2 PUSH32 0x0 PUSH32 0x0 PUSH2 0xE36 PUSH1 0x2 DUP8 PUSH2 0x1B2C JUMP JUMPDEST SWAP1 POP PUSH2 0xB8D PUSH32 0x0 PUSH32 0x0 PUSH2 0xE7B PUSH1 0x2 DUP8 PUSH2 0x1B2C JUMP JUMPDEST PUSH1 0x40 MLOAD PUSH4 0x95EA7B3 PUSH1 0xE0 SHL DUP2 MSTORE PUSH20 0x10ED43C718714EB63D5AA57B78B54704E256024E PUSH1 0x4 DUP3 ADD MSTORE PUSH1 0x24 DUP2 ADD DUP5 SWAP1 MSTORE PUSH1 0x1 PUSH1 0x1 PUSH1 0xA0 SHL SUB DUP7 AND SWAP1 PUSH4 0x95EA7B3 SWAP1 PUSH1 0x44 ADD PUSH1 0x20 PUSH1 0x40 MLOAD DUP1 DUP4 SUB DUP2 PUSH1 0x0 DUP8 GAS CALL ISZERO DUP1 ISZERO PUSH2 0x17A5 JUMPI RETURNDATASIZE PUSH1 0x0 DUP1 RETURNDATACOPY RETURNDATASIZE PUSH1 0x0 REVERT JUMPDEST POP POP POP POP PUSH1 0x40 MLOAD RETURNDATASIZE PUSH1 0x1F NOT PUSH1 0x1F DUP3 ADD AND DUP3 ADD DUP1 PUSH1 0x40 MSTORE POP DUP2 ADD SWAP1 PUSH2 0x17C9 SWAP2 SWAP1 PUSH2 0x1B4E JUMP JUMPDEST POP PUSH1 0x60 PUSH1 0x1 PUSH1 0x1 PUSH1 0xA0 SHL SUB DUP7 AND PUSH20 0xBB4CDB9CBD36B01BD1CBAEBF2DE08D9173BC095C EQ DUP1 PUSH2 0x1813 JUMPI POP PUSH1 0x1 PUSH1 0x1 PUSH1 0xA0 SHL SUB DUP6 AND PUSH20 0xBB4CDB9CBD36B01BD1CBAEBF2DE08D9173BC095C EQ JUMPDEST ISZERO PUSH2 0x18A5 JUMPI PUSH1 0x40 DUP1 MLOAD PUSH1 0x2 DUP1 DUP3 MSTORE PUSH1 0x60 DUP3 ADD DUP4 MSTORE SWAP1 SWAP2 PUSH1 0x20 DUP4 ADD SWAP1 DUP1 CALLDATASIZE DUP4 CALLDATACOPY ADD SWAP1 POP POP SWAP1 POP DUP6 DUP2 PUSH1 0x0 DUP2 MLOAD DUP2 LT PUSH2 0x184C JUMPI PUSH2 0x184C PUSH2 0x1BE1 JUMP JUMPDEST PUSH1 0x20 MUL PUSH1 0x20 ADD ADD SWAP1 PUSH1 0x1 PUSH1 0x1 PUSH1 0xA0 SHL SUB AND SWAP1 DUP2 PUSH1 0x1 PUSH1 0x1 PUSH1 0xA0 SHL SUB AND DUP2 MSTORE POP POP DUP5 DUP2 PUSH1 0x1 DUP2 MLOAD DUP2 LT PUSH2 0x1880 JUMPI PUSH2 0x1880 PUSH2 0x1BE1 JUMP JUMPDEST PUSH1 0x20 MUL PUSH1 0x20 ADD ADD SWAP1 PUSH1 0x1 PUSH1 0x1 PUSH1 0xA0 SHL SUB AND SWAP1 DUP2 PUSH1 0x1 PUSH1 0x1 PUSH1 0xA0 SHL SUB AND DUP2 MSTORE POP POP PUSH2 0x1977 JUMP JUMPDEST PUSH1 0x40 DUP1 MLOAD PUSH1 0x3 DUP1 DUP3 MSTORE PUSH1 0x80 DUP3 ADD SWAP1 SWAP3 MSTORE SWAP1 PUSH1 0x20 DUP3 ADD PUSH1 0x60 DUP1 CALLDATASIZE DUP4 CALLDATACOPY ADD SWAP1 POP POP SWAP1 POP DUP6 DUP2 PUSH1 0x0 DUP2 MLOAD DUP2 LT PUSH2 0x18DA JUMPI PUSH2 0x18DA PUSH2 0x1BE1 JUMP JUMPDEST PUSH1 0x20 MUL PUSH1 0x20 ADD ADD SWAP1 PUSH1 0x1 PUSH1 0x1 PUSH1 0xA0 SHL SUB AND SWAP1 DUP2 PUSH1 0x1 PUSH1 0x1 PUSH1 0xA0 SHL SUB AND DUP2 MSTORE POP POP PUSH20 0x55D398326F99059FF775485246999027B3197955 DUP2 PUSH1 0x1 DUP2 MLOAD DUP2 LT PUSH2 0x1922 JUMPI PUSH2 0x1922 PUSH2 0x1BE1 JUMP JUMPDEST PUSH1 0x20 MUL PUSH1 0x20 ADD ADD SWAP1 PUSH1 0x1 PUSH1 0x1 PUSH1 0xA0 SHL SUB AND SWAP1 DUP2 PUSH1 0x1 PUSH1 0x1 PUSH1 0xA0 SHL SUB AND DUP2 MSTORE POP POP DUP5 DUP2 PUSH1 0x2 DUP2 MLOAD DUP2 LT PUSH2 0x1956 JUMPI PUSH2 0x1956 PUSH2 0x1BE1 JUMP JUMPDEST PUSH1 0x20 MUL PUSH1 0x20 ADD ADD SWAP1 PUSH1 0x1 PUSH1 0x1 PUSH1 0xA0 SHL SUB AND SWAP1 DUP2 PUSH1 0x1 PUSH1 0x1 PUSH1 0xA0 SHL SUB AND DUP2 MSTORE POP POP JUMPDEST PUSH1 0x40 MLOAD PUSH4 0x38ED1739 PUSH1 0xE0 SHL DUP2 MSTORE PUSH20 0x10ED43C718714EB63D5AA57B78B54704E256024E SWAP1 PUSH4 0x38ED1739 SWAP1 PUSH2 0x19B6 SWAP1 DUP8 SWAP1 DUP8 SWAP1 DUP7 SWAP1 DUP9 SWAP1 TIMESTAMP SWAP1 PUSH1 0x4 ADD PUSH2 0x1D41 JUMP JUMPDEST PUSH1 0x0 PUSH1 0x40 MLOAD DUP1 DUP4 SUB DUP2 PUSH1 0x0 DUP8 GAS CALL ISZERO DUP1 ISZERO PUSH2 0x19D5 JUMPI RETURNDATASIZE PUSH1 0x0 DUP1 RETURNDATACOPY RETURNDATASIZE PUSH1 0x0 REVERT JUMPDEST POP POP POP POP PUSH1 0x40 MLOAD RETURNDATASIZE PUSH1 0x0 DUP3 RETURNDATACOPY PUSH1 0x1F RETURNDATASIZE SWAP1 DUP2 ADD PUSH1 0x1F NOT AND DUP3 ADD PUSH1 0x40 MSTORE PUSH2 0x10AA SWAP2 SWAP1 DUP2 ADD SWAP1 PUSH2 0x1C54 JUMP JUMPDEST DUP1 CALLDATALOAD PUSH1 0x1 PUSH1 0x1 PUSH1 0xA0 SHL SUB DUP2 AND DUP2 EQ PUSH2 0x1A14 JUMPI PUSH1 0x0 DUP1 REVERT JUMPDEST SWAP2 SWAP1 POP JUMP JUMPDEST PUSH1 0x0 DUP1 PUSH1 0x0 PUSH1 0x60 DUP5 DUP7 SUB SLT ISZERO PUSH2 0x1A2E JUMPI PUSH1 0x0 DUP1 REVERT JUMPDEST PUSH2 0x1A37 DUP5 PUSH2 0x19FD JUMP JUMPDEST SWAP3 POP PUSH2 0x1A45 PUSH1 0x20 DUP6 ADD PUSH2 0x19FD JUMP JUMPDEST SWAP2 POP PUSH1 0x40 DUP5 ADD CALLDATALOAD SWAP1 POP SWAP3 POP SWAP3 POP SWAP3 JUMP JUMPDEST PUSH1 0x0 PUSH1 0x20 DUP3 DUP5 SUB SLT ISZERO PUSH2 0x1A67 JUMPI PUSH1 0x0 DUP1 REVERT JUMPDEST PUSH2 0x1A70 DUP3 PUSH2 0x19FD JUMP JUMPDEST SWAP4 SWAP3 POP POP POP JUMP JUMPDEST PUSH1 0x0 PUSH1 0x20 DUP3 DUP5 SUB SLT ISZERO PUSH2 0x1A89 JUMPI PUSH1 0x0 DUP1 REVERT JUMPDEST POP MLOAD SWAP2 SWAP1 POP JUMP JUMPDEST DUP1 MLOAD PUSH1 0x1 PUSH1 0x1 PUSH1 0x70 SHL SUB DUP2 AND DUP2 EQ PUSH2 0x1A14 JUMPI PUSH1 0x0 DUP1 REVERT JUMPDEST PUSH1 0x0 DUP1 PUSH1 0x0 PUSH1 0x60 DUP5 DUP7 SUB SLT ISZERO PUSH2 0x1ABC JUMPI PUSH1 0x0 DUP1 REVERT JUMPDEST PUSH2 0x1AC5 DUP5 PUSH2 0x1A90 JUMP JUMPDEST SWAP3 POP PUSH2 0x1AD3 PUSH1 0x20 DUP6 ADD PUSH2 0x1A90 JUMP JUMPDEST SWAP2 POP PUSH1 0x40 DUP5 ADD MLOAD PUSH4 0xFFFFFFFF DUP2 AND DUP2 EQ PUSH2 0x1AEC JUMPI PUSH1 0x0 DUP1 REVERT JUMPDEST DUP1 SWAP2 POP POP SWAP3 POP SWAP3 POP SWAP3 JUMP JUMPDEST PUSH4 0x4E487B71 PUSH1 0xE0 SHL PUSH1 0x0 MSTORE PUSH1 0x11 PUSH1 0x4 MSTORE PUSH1 0x24 PUSH1 0x0 REVERT JUMPDEST PUSH1 0x0 DUP2 PUSH1 0x0 NOT DIV DUP4 GT DUP3 ISZERO ISZERO AND ISZERO PUSH2 0x1B27 JUMPI PUSH2 0x1B27 PUSH2 0x1AF7 JUMP JUMPDEST POP MUL SWAP1 JUMP JUMPDEST PUSH1 0x0 DUP3 PUSH2 0x1B49 JUMPI PUSH4 0x4E487B71 PUSH1 0xE0 SHL PUSH1 0x0 MSTORE PUSH1 0x12 PUSH1 0x4 MSTORE PUSH1 0x24 PUSH1 0x0 REVERT JUMPDEST POP DIV SWAP1 JUMP JUMPDEST PUSH1 0x0 PUSH1 0x20 DUP3 DUP5 SUB SLT ISZERO PUSH2 0x1B60 JUMPI PUSH1 0x0 DUP1 REVERT JUMPDEST DUP2 MLOAD DUP1 ISZERO ISZERO DUP2 EQ PUSH2 0x1A70 JUMPI PUSH1 0x0 DUP1 REVERT JUMPDEST DUP1 MLOAD PUSH1 0x1 PUSH1 0x1 PUSH1 0x80 SHL SUB DUP2 AND DUP2 EQ PUSH2 0x1A14 JUMPI PUSH1 0x0 DUP1 REVERT JUMPDEST PUSH1 0x0 DUP1 PUSH1 0x0 DUP1 PUSH1 0x80 DUP6 DUP8 SUB SLT ISZERO PUSH2 0x1B9D JUMPI PUSH1 0x0 DUP1 REVERT JUMPDEST DUP5 MLOAD SWAP4 POP PUSH2 0x1BAD PUSH1 0x20 DUP7 ADD PUSH2 0x1B70 JUMP JUMPDEST SWAP3 POP PUSH2 0x1BBB PUSH1 0x40 DUP7 ADD PUSH2 0x1B70 JUMP JUMPDEST PUSH1 0x60 SWAP6 SWAP1 SWAP6 ADD MLOAD SWAP4 SWAP7 SWAP3 SWAP6 POP POP POP JUMP JUMPDEST PUSH4 0x4E487B71 PUSH1 0xE0 SHL PUSH1 0x0 MSTORE PUSH1 0x41 PUSH1 0x4 MSTORE PUSH1 0x24 PUSH1 0x0 REVERT JUMPDEST PUSH4 0x4E487B71 PUSH1 0xE0 SHL PUSH1 0x0 MSTORE PUSH1 0x32 PUSH1 0x4 MSTORE PUSH1 0x24 PUSH1 0x0 REVERT JUMPDEST PUSH1 0x0 DUP2 MLOAD DUP1 DUP5 MSTORE PUSH1 0x20 DUP1 DUP6 ADD SWAP5 POP DUP1 DUP5 ADD PUSH1 0x0 JUMPDEST DUP4 DUP2 LT ISZERO PUSH2 0x1C30 JUMPI DUP2 MLOAD PUSH1 0x1 PUSH1 0x1 PUSH1 0xA0 SHL SUB AND DUP8 MSTORE SWAP6 DUP3 ADD SWAP6 SWAP1 DUP3 ADD SWAP1 PUSH1 0x1 ADD PUSH2 0x1C0B JUMP JUMPDEST POP SWAP5 SWAP6 SWAP5 POP POP POP POP POP JUMP JUMPDEST DUP3 DUP2 MSTORE PUSH1 0x40 PUSH1 0x20 DUP3 ADD MSTORE PUSH1 0x0 PUSH2 0x841 PUSH1 0x40 DUP4 ADD DUP5 PUSH2 0x1BF7 JUMP JUMPDEST PUSH1 0x0 PUSH1 0x20 DUP1 DUP4 DUP6 SUB SLT ISZERO PUSH2 0x1C67 JUMPI PUSH1 0x0 DUP1 REVERT JUMPDEST DUP3 MLOAD PUSH8 0xFFFFFFFFFFFFFFFF DUP1 DUP3 GT ISZERO PUSH2 0x1C7F JUMPI PUSH1 0x0 DUP1 REVERT JUMPDEST DUP2 DUP6 ADD SWAP2 POP DUP6 PUSH1 0x1F DUP4 ADD SLT PUSH2 0x1C93 JUMPI PUSH1 0x0 DUP1 REVERT JUMPDEST DUP2 MLOAD DUP2 DUP2 GT ISZERO PUSH2 0x1CA5 JUMPI PUSH2 0x1CA5 PUSH2 0x1BCB JUMP JUMPDEST DUP1 PUSH1 0x5 SHL PUSH1 0x40 MLOAD PUSH1 0x1F NOT PUSH1 0x3F DUP4 ADD AND DUP2 ADD DUP2 DUP2 LT DUP6 DUP3 GT OR ISZERO PUSH2 0x1CCA JUMPI PUSH2 0x1CCA PUSH2 0x1BCB JUMP JUMPDEST PUSH1 0x40 MSTORE SWAP2 DUP3 MSTORE DUP5 DUP3 ADD SWAP3 POP DUP4 DUP2 ADD DUP6 ADD SWAP2 DUP9 DUP4 GT ISZERO PUSH2 0x1CE8 JUMPI PUSH1 0x0 DUP1 REVERT JUMPDEST SWAP4 DUP6 ADD SWAP4 JUMPDEST DUP3 DUP6 LT ISZERO PUSH2 0x1D06 JUMPI DUP5 MLOAD DUP5 MSTORE SWAP4 DUP6 ADD SWAP4 SWAP3 DUP6 ADD SWAP3 PUSH2 0x1CED JUMP JUMPDEST SWAP9 SWAP8 POP POP POP POP POP POP POP POP JUMP JUMPDEST PUSH1 0x0 DUP3 DUP3 LT ISZERO PUSH2 0x1D24 JUMPI PUSH2 0x1D24 PUSH2 0x1AF7 JUMP JUMPDEST POP SUB SWAP1 JUMP JUMPDEST PUSH1 0x0 DUP3 NOT DUP3 GT ISZERO PUSH2 0x1D3C JUMPI PUSH2 0x1D3C PUSH2 0x1AF7 JUMP JUMPDEST POP ADD SWAP1 JUMP JUMPDEST DUP6 DUP2 MSTORE DUP5 PUSH1 0x20 DUP3 ADD MSTORE PUSH1 0xA0 PUSH1 0x40 DUP3 ADD MSTORE PUSH1 0x0 PUSH2 0x1D60 PUSH1 0xA0 DUP4 ADD DUP7 PUSH2 0x1BF7 JUMP JUMPDEST PUSH1 0x1 PUSH1 0x1 PUSH1 0xA0 SHL SUB SWAP5 SWAP1 SWAP5 AND PUSH1 0x60 DUP4 ADD MSTORE POP PUSH1 0x80 ADD MSTORE SWAP4 SWAP3 POP POP POP JUMP INVALID STOP STOP STOP STOP STOP STOP STOP STOP STOP STOP STOP STOP 0xD3 0x2D ADD LOG4 EXTCODECOPY DUP7 SWAP15 0xDC 0xD1 GT PUSH29 0x640FBDCFCFD97D9D65A2646970667358221220B1490801FD5914AA345A SWAP12 0xAD 0x21 0x49 0xD7 SHR 0xCB PUSH26 0xB37F63E5A9B2B18910766A951B8664736F6C634300080D003300 "},"methodIdentifiers":{"add_liquidity()":"ec45ef89","deposit()":"d0e30db0","getAmountOutMin(address,address,uint256)":"3c50eec1","get_amount_before_deposit()":"0c45b610","liquidityAddress()":"3221c93f","maxStake()":"ea1b28e0","nomiswapStakingServiceAddress()":"8d020e6b","owner()":"8da5cb5b","renounceOwnership()":"715018a6","royaltyAddress()":"ad2f852a","stake()":"3a4b66f1","stop_staking()":"fd08a201","timer_init()":"4ea0abfb","transferOwnership(address)":"f2fde38b"}}}}}