{
  "_format": "hh-sol-artifact-1",
  "contractName": "Staking",
  "sourceName": "contracts/Staking.sol",
  "abi": [
    {
      "inputs": [
        {
          "internalType": "contract WrappedTON",
          "name": "tonToken_",
          "type": "address"
        },
        {
          "internalType": "uint256",
          "name": "max_stake_amount_",
          "type": "uint256"
        },
        {
          "internalType": "address",
          "name": "nomiswapStakingServiceAddr_",
          "type": "address"
        },
        {
          "internalType": "address",
          "name": "royaltyAddr_",
          "type": "address"
        },
        {
          "components": [
            {
              "internalType": "int8",
              "name": "workchain",
              "type": "int8"
            },
            {
              "internalType": "bytes32",
              "name": "address_hash",
              "type": "bytes32"
            }
          ],
          "internalType": "struct TonAddress",
          "name": "liquidityAddr_",
          "type": "tuple"
        }
      ],
      "stateMutability": "nonpayable",
      "type": "constructor"
    },
    {
      "anonymous": false,
      "inputs": [
        {
          "indexed": true,
          "internalType": "address",
          "name": "previousOwner",
          "type": "address"
        },
        {
          "indexed": true,
          "internalType": "address",
          "name": "newOwner",
          "type": "address"
        }
      ],
      "name": "OwnershipTransferred",
      "type": "event"
    },
    {
      "inputs": [],
      "name": "add_liquidity",
      "outputs": [],
      "stateMutability": "nonpayable",
      "type": "function"
    },
    {
      "inputs": [],
      "name": "liquidityAddress",
      "outputs": [
        {
          "components": [
            {
              "internalType": "int8",
              "name": "workchain",
              "type": "int8"
            },
            {
              "internalType": "bytes32",
              "name": "address_hash",
              "type": "bytes32"
            }
          ],
          "internalType": "struct TonAddress",
          "name": "",
          "type": "tuple"
        }
      ],
      "stateMutability": "view",
      "type": "function"
    },
    {
      "inputs": [],
      "name": "maxStake",
      "outputs": [
        {
          "internalType": "uint256",
          "name": "",
          "type": "uint256"
        }
      ],
      "stateMutability": "view",
      "type": "function"
    },
    {
      "inputs": [],
      "name": "nomiswapStakingServiceAddress",
      "outputs": [
        {
          "internalType": "address",
          "name": "",
          "type": "address"
        }
      ],
      "stateMutability": "view",
      "type": "function"
    },
    {
      "inputs": [],
      "name": "owner",
      "outputs": [
        {
          "internalType": "address",
          "name": "",
          "type": "address"
        }
      ],
      "stateMutability": "view",
      "type": "function"
    },
    {
      "inputs": [],
      "name": "renounceOwnership",
      "outputs": [],
      "stateMutability": "nonpayable",
      "type": "function"
    },
    {
      "inputs": [],
      "name": "royaltyAddress",
      "outputs": [
        {
          "internalType": "address",
          "name": "",
          "type": "address"
        }
      ],
      "stateMutability": "view",
      "type": "function"
    },
    {
      "inputs": [],
      "name": "stop_staking",
      "outputs": [],
      "stateMutability": "nonpayable",
      "type": "function"
    },
    {
      "inputs": [],
      "name": "timer_init",
      "outputs": [],
      "stateMutability": "nonpayable",
      "type": "function"
    },
    {
      "inputs": [
        {
          "internalType": "address",
          "name": "newOwner",
          "type": "address"
        }
      ],
      "name": "transferOwnership",
      "outputs": [],
      "stateMutability": "nonpayable",
      "type": "function"
    },
    {
      "stateMutability": "payable",
      "type": "receive"
    }
  ],
  "bytecode": "0x6101006040523480156200001257600080fd5b5060405162001759380380620017598339810160408190526200003591620001fd565b620000403362000194565b6001600160a01b038516620000cb576040517f08c379a000000000000000000000000000000000000000000000000000000000815260206004820152602860248201526000805160206200173983398151915260448201527f206164647265737300000000000000000000000000000000000000000000000060648201526084015b60405180910390fd5b6001600160a01b03831662000152576040517f08c379a000000000000000000000000000000000000000000000000000000000815260206004820152602860248201526000805160206200173983398151915260448201527f20616464726573730000000000000000000000000000000000000000000000006064820152608401620000c2565b6001600160a01b0394851660805260a09390935290831660c05290911660e05280516002805460ff191660ff90921691909117905560200151600355620002e2565b600080546001600160a01b038381166001600160a01b0319831681178455604051919092169283917f8be0079c531659141344cd1fd0a4f28419497f9722a3daafe3b4186f6b6457e09190a35050565b6001600160a01b0381168114620001fa57600080fd5b50565b600080600080600085870360c08112156200021757600080fd5b86516200022481620001e4565b6020880151604089015191975095506200023e81620001e4565b60608801519094506200025181620001e4565b92506040607f19820112156200026657600080fd5b50604080519081016001600160401b0381118282101715620002b1577f4e487b7100000000000000000000000000000000000000000000000000000000600052604160045260246000fd5b6040526080870151600081900b8114620002ca57600080fd5b815260a0969096015160208701525092959194509290565b60805160a05160c05160e0516113c96200037060003960008181610196015261067d015260008181610131015281816102540152818161048701528181610fab015261109d0152600081816101cc01526105fd01526000818161037601528181610580015281816105c1015281816106560152818161072501528181610e400152610ee401526113c96000f3fe6080604052600436106100955760003560e01c8063ad2f852a11610059578063ad2f852a14610187578063ea1b28e0146101ba578063ec45ef89146101f5578063f2fde38b1461020a578063fd08a2011461022a57600080fd5b80633221c93f146100a15780634ea0abfb146100f6578063715018a61461010d5780638d020e6b146101225780638da5cb5b1461016957600080fd5b3661009c57005b600080fd5b3480156100ad57600080fd5b50604080518082018252600080825260209182018190528251808401845260025490910b8082526003549183019182528351908152905191810191909152015b60405180910390f35b34801561010257600080fd5b5061010b61023f565b005b34801561011957600080fd5b5061010b61034a565b34801561012e57600080fd5b507f00000000000000000000000000000000000000000000000000000000000000005b6040516001600160a01b0390911681526020016100ed565b34801561017557600080fd5b506000546001600160a01b0316610151565b34801561019357600080fd5b507f0000000000000000000000000000000000000000000000000000000000000000610151565b3480156101c657600080fd5b506040517f000000000000000000000000000000000000000000000000000000000000000081526020016100ed565b34801561020157600080fd5b5061010b61035e565b34801561021657600080fd5b5061010b6102253660046110d6565b6103f7565b34801561023657600080fd5b5061010b610472565b6040516348b4573960e11b81523060048201527f0000000000000000000000000000000000000000000000000000000000000000906000906001600160a01b03831690639168ae7290602401608060405180830381865afa1580156102a8573d6000803e3d6000fd5b505050506040513d601f19601f820116820180604052508101906102cc9190611122565b506040516305c2fbcf60e31b81526001600160801b03821660048201529093506001600160a01b0385169250632e17de789150602401600060405180830381600087803b15801561031c57600080fd5b505af1158015610330573d6000803e3d6000fd5b50505050610346816001600160801b0316610564565b5050565b6103526107be565b61035c6000610818565b565b6040516370a0823160e01b81523060048201526000907f00000000000000000000000000000000000000000000000000000000000000006001600160a01b0316906370a0823190602401602060405180830381865afa1580156103c5573d6000803e3d6000fd5b505050506040513d601f19601f820116820180604052508101906103e99190611166565b90506103f481610868565b50565b6103ff6107be565b6001600160a01b0381166104695760405162461bcd60e51b815260206004820152602660248201527f4f776e61626c653a206e6577206f776e657220697320746865207a65726f206160448201526564647265737360d01b60648201526084015b60405180910390fd5b6103f481610818565b6040516348b4573960e11b81523060048201527f0000000000000000000000000000000000000000000000000000000000000000906000906001600160a01b03831690639168ae7290602401608060405180830381865afa1580156104db573d6000803e3d6000fd5b505050506040513d601f19601f820116820180604052508101906104ff9190611122565b50506040516305c2fbcf60e31b815260048101839052919250506001600160a01b03831690632e17de7890602401600060405180830381600087803b15801561054757600080fd5b505af115801561055b573d6000803e3d6000fd5b50505050610346815b60006105a573d32d01a43c869edcd1117c640fbdcfcfd97d9d657f000000000000000000000000000000000000000000000000000000000000000084610889565b90506105e873d32d01a43c869edcd1117c640fbdcfcfd97d9d657f0000000000000000000000000000000000000000000000000000000000000000848430610aed565b6105fb6105f6600283611195565b610e27565b7f0000000000000000000000000000000000000000000000000000000000000000610627600283611195565b60015461063491906111b7565b1161071b5761064c610647600483611195565b610868565b6001600160a01b037f00000000000000000000000000000000000000000000000000000000000000001663a9059cbb7f00000000000000000000000000000000000000000000000000000000000000006106a7600485611195565b6040516001600160e01b031960e085901b1681526001600160a01b03909216600483015260248201526044016020604051808303816000875af11580156106f2573d6000803e3d6000fd5b505050506040513d601f19601f8201168201806040525081019061071691906111cf565b505050565b6001600160a01b037f00000000000000000000000000000000000000000000000000000000000000001663e057fbff610755600284611195565b6040516001600160e01b031960e084901b168152600481019190915260025460000b602482015260035460448201526064015b600060405180830381600087803b1580156107a257600080fd5b505af11580156107b6573d6000803e3d6000fd5b505050505050565b6000546001600160a01b0316331461035c5760405162461bcd60e51b815260206004820181905260248201527f4f776e61626c653a2063616c6c6572206973206e6f7420746865206f776e65726044820152606401610460565b600080546001600160a01b038381166001600160a01b0319831681178455604051919092169283917f8be0079c531659141344cd1fd0a4f28419497f9722a3daafe3b4186f6b6457e09190a35050565b806001600082825461087a91906111b7565b909155506103f4905081610e27565b600060606001600160a01b03851673c02aaa39b223fe8d0a0e5c4f27ead9083c756cc214806108d457506001600160a01b03841673c02aaa39b223fe8d0a0e5c4f27ead9083c756cc2145b15610966576040805160028082526060820183529091602083019080368337019050509050848160008151811061090d5761090d611207565b60200260200101906001600160a01b031690816001600160a01b031681525050838160018151811061094157610941611207565b60200260200101906001600160a01b031690816001600160a01b031681525050610a38565b604080516003808252608082019092529060208201606080368337019050509050848160008151811061099b5761099b611207565b60200260200101906001600160a01b031690816001600160a01b03168152505073c02aaa39b223fe8d0a0e5c4f27ead9083c756cc2816001815181106109e3576109e3611207565b60200260200101906001600160a01b031690816001600160a01b0316815250508381600281518110610a1757610a17611207565b60200260200101906001600160a01b031690816001600160a01b0316815250505b60405163d06ca61f60e01b8152600090737a250d5630b4cf539739df2c5dacb4c659f2488d9063d06ca61f90610a749087908690600401611261565b600060405180830381865afa158015610a91573d6000803e3d6000fd5b505050506040513d6000823e601f3d908101601f19168201604052610ab99190810190611282565b90508060018351610aca9190611340565b81518110610ada57610ada611207565b6020026020010151925050509392505050565b6040516323b872dd60e01b8152336004820152306024820152604481018490526001600160a01b038616906323b872dd906064016020604051808303816000875af1158015610b40573d6000803e3d6000fd5b505050506040513d601f19601f82011682018060405250810190610b6491906111cf565b5060405163095ea7b360e01b8152737a250d5630b4cf539739df2c5dacb4c659f2488d6004820152602481018490526001600160a01b0386169063095ea7b3906044016020604051808303816000875af1158015610bc6573d6000803e3d6000fd5b505050506040513d601f19601f82011682018060405250810190610bea91906111cf565b5060606001600160a01b03861673c02aaa39b223fe8d0a0e5c4f27ead9083c756cc21480610c3457506001600160a01b03851673c02aaa39b223fe8d0a0e5c4f27ead9083c756cc2145b15610cc65760408051600280825260608201835290916020830190803683370190505090508581600081518110610c6d57610c6d611207565b60200260200101906001600160a01b031690816001600160a01b0316815250508481600181518110610ca157610ca1611207565b60200260200101906001600160a01b031690816001600160a01b031681525050610d98565b6040805160038082526080820190925290602082016060803683370190505090508581600081518110610cfb57610cfb611207565b60200260200101906001600160a01b031690816001600160a01b03168152505073c02aaa39b223fe8d0a0e5c4f27ead9083c756cc281600181518110610d4357610d43611207565b60200260200101906001600160a01b031690816001600160a01b0316815250508481600281518110610d7757610d77611207565b60200260200101906001600160a01b031690816001600160a01b0316815250505b6040516338ed173960e01b8152737a250d5630b4cf539739df2c5dacb4c659f2488d906338ed173990610dd79087908790869088904290600401611357565b6000604051808303816000875af1158015610df6573d6000803e3d6000fd5b505050506040513d6000823e601f3d908101601f19168201604052610e1e9190810190611282565b50505050505050565b6040516370a0823160e01b8152306004820152610f7a907f00000000000000000000000000000000000000000000000000000000000000009073d32d01a43c869edcd1117c640fbdcfcfd97d9d65906001600160a01b038316906370a0823190602401602060405180830381865afa158015610ea7573d6000803e3d6000fd5b505050506040513d601f19601f82011682018060405250810190610ecb9190611166565b6040516370a0823160e01b8152306004820152610f74907f00000000000000000000000000000000000000000000000000000000000000009073d32d01a43c869edcd1117c640fbdcfcfd97d9d65906001600160a01b038316906370a0823190602401602060405180830381865afa158015610f4b573d6000803e3d6000fd5b505050506040513d601f19601f82011682018060405250810190610f6f9190611166565b610889565b30610aed565b6040516370a0823160e01b815230600482015273d32d01a43c869edcd1117c640fbdcfcfd97d9d659063095ea7b3907f00000000000000000000000000000000000000000000000000000000000000009083906370a0823190602401602060405180830381865afa158015610ff3573d6000803e3d6000fd5b505050506040513d601f19601f820116820180604052508101906110179190611166565b6040516001600160e01b031960e085901b1681526001600160a01b03909216600483015260248201526044016020604051808303816000875af1158015611062573d6000803e3d6000fd5b505050506040513d601f19601f8201168201806040525081019061108691906111cf565b5060405163534a7e1d60e11b8152600481018290527f0000000000000000000000000000000000000000000000000000000000000000906001600160a01b0382169063a694fc3a90602401610788565b6000602082840312156110e857600080fd5b81356001600160a01b03811681146110ff57600080fd5b9392505050565b80516001600160801b038116811461111d57600080fd5b919050565b6000806000806080858703121561113857600080fd5b8451935061114860208601611106565b925061115660408601611106565b6060959095015193969295505050565b60006020828403121561117857600080fd5b5051919050565b634e487b7160e01b600052601160045260246000fd5b6000826111b257634e487b7160e01b600052601260045260246000fd5b500490565b600082198211156111ca576111ca61117f565b500190565b6000602082840312156111e157600080fd5b815180151581146110ff57600080fd5b634e487b7160e01b600052604160045260246000fd5b634e487b7160e01b600052603260045260246000fd5b600081518084526020808501945080840160005b838110156112565781516001600160a01b031687529582019590820190600101611231565b509495945050505050565b82815260406020820152600061127a604083018461121d565b949350505050565b6000602080838503121561129557600080fd5b825167ffffffffffffffff808211156112ad57600080fd5b818501915085601f8301126112c157600080fd5b8151818111156112d3576112d36111f1565b8060051b604051601f19603f830116810181811085821117156112f8576112f86111f1565b60405291825284820192508381018501918883111561131657600080fd5b938501935b828510156113345784518452938501939285019261131b565b98975050505050505050565b6000828210156113525761135261117f565b500390565b85815284602082015260a06040820152600061137660a083018661121d565b6001600160a01b039490941660608301525060800152939250505056fea2646970667358221220d02fe09b24b060d139d14624569b054eccb7dd8b4118734e38f8948c69ec9f6c64736f6c634300080d0033546f6b656e20616464726573732063616e6e6f7420626520746865207a65726f",
  "linkReferences": {},
  "deployedLinkReferences": {}
}