{
  "_format": "hh-sol-artifact-1",
  "contractName": "Royalty",
  "sourceName": "contracts/Royalty.sol",
  "abi": [
    {
      "inputs": [
        {
          "internalType": "contract WrappedTON",
          "name": "tonTokenAddr_",
          "type": "address"
        },
        {
          "internalType": "address",
          "name": "specialAddr_",
          "type": "address"
        },
        {
          "components": [
            {
              "internalType": "int8",
              "name": "workchain",
              "type": "int8"
            },
            {
              "internalType": "bytes32",
              "name": "address_hash",
              "type": "bytes32"
            }
          ],
          "internalType": "struct TonAddress",
          "name": "sendRoyaltyAddr_",
          "type": "tuple"
        }
      ],
      "stateMutability": "nonpayable",
      "type": "constructor"
    },
    {
      "anonymous": false,
      "inputs": [
        {
          "indexed": true,
          "internalType": "address",
          "name": "previousOwner",
          "type": "address"
        },
        {
          "indexed": true,
          "internalType": "address",
          "name": "newOwner",
          "type": "address"
        }
      ],
      "name": "OwnershipTransferred",
      "type": "event"
    },
    {
      "inputs": [],
      "name": "owner",
      "outputs": [
        {
          "internalType": "address",
          "name": "",
          "type": "address"
        }
      ],
      "stateMutability": "view",
      "type": "function"
    },
    {
      "inputs": [],
      "name": "renounceOwnership",
      "outputs": [],
      "stateMutability": "nonpayable",
      "type": "function"
    },
    {
      "inputs": [],
      "name": "sendRoyaltyAddress",
      "outputs": [
        {
          "components": [
            {
              "internalType": "int8",
              "name": "workchain",
              "type": "int8"
            },
            {
              "internalType": "bytes32",
              "name": "address_hash",
              "type": "bytes32"
            }
          ],
          "internalType": "struct TonAddress",
          "name": "",
          "type": "tuple"
        }
      ],
      "stateMutability": "view",
      "type": "function"
    },
    {
      "inputs": [],
      "name": "specialAddress",
      "outputs": [
        {
          "internalType": "address",
          "name": "",
          "type": "address"
        }
      ],
      "stateMutability": "view",
      "type": "function"
    },
    {
      "inputs": [
        {
          "internalType": "address",
          "name": "newOwner",
          "type": "address"
        }
      ],
      "name": "transferOwnership",
      "outputs": [],
      "stateMutability": "nonpayable",
      "type": "function"
    },
    {
      "stateMutability": "payable",
      "type": "receive"
    }
  ],
  "bytecode": "0x60c060405234801561001057600080fd5b506040516105ce3803806105ce83398101604081905261002f916101e1565b61003833610179565b6001600160a01b0383166100c1576040517f08c379a000000000000000000000000000000000000000000000000000000000815260206004820152602860248201526000805160206105ae83398151915260448201527f206164647265737300000000000000000000000000000000000000000000000060648201526084015b60405180910390fd5b6001600160a01b038216610145576040517f08c379a000000000000000000000000000000000000000000000000000000000815260206004820152602860248201526000805160206105ae83398151915260448201527f206164647265737300000000000000000000000000000000000000000000000060648201526084016100b8565b6001600160a01b03928316608052911660a05280516001805460ff191660ff909216919091179055602001516002556102a0565b600080546001600160a01b038381166001600160a01b0319831681178455604051919092169283917f8be0079c531659141344cd1fd0a4f28419497f9722a3daafe3b4186f6b6457e09190a35050565b6001600160a01b03811681146101de57600080fd5b50565b600080600083850360808112156101f757600080fd5b8451610202816101c9565b6020860151909450610213816101c9565b92506040603f198201121561022757600080fd5b50604080519081016001600160401b0381118282101715610271577f4e487b7100000000000000000000000000000000000000000000000000000000600052604160045260246000fd5b806040525060408501518060000b811461028a57600080fd5b8152606094909401516020850152509093909250565b60805160a0516102ed6102c1600039600060690152600050506102ed6000f3fe60806040526004361061004e5760003560e01c806321f3dd651461005a5780635a9f9a06146100a6578063715018a6146100f65780638da5cb5b1461010d578063f2fde38b1461012b57600080fd5b3661005557005b600080fd5b34801561006657600080fd5b507f00000000000000000000000000000000000000000000000000000000000000005b6040516001600160a01b0390911681526020015b60405180910390f35b3480156100b257600080fd5b50604080518082018252600080825260209182018190528251808401845260015490910b80825260025491830191825283519081529051918101919091520161009d565b34801561010257600080fd5b5061010b61014b565b005b34801561011957600080fd5b506000546001600160a01b0316610089565b34801561013757600080fd5b5061010b610146366004610287565b61015f565b6101536101dd565b61015d6000610237565b565b6101676101dd565b6001600160a01b0381166101d15760405162461bcd60e51b815260206004820152602660248201527f4f776e61626c653a206e6577206f776e657220697320746865207a65726f206160448201526564647265737360d01b60648201526084015b60405180910390fd5b6101da81610237565b50565b6000546001600160a01b0316331461015d5760405162461bcd60e51b815260206004820181905260248201527f4f776e61626c653a2063616c6c6572206973206e6f7420746865206f776e657260448201526064016101c8565b600080546001600160a01b038381166001600160a01b0319831681178455604051919092169283917f8be0079c531659141344cd1fd0a4f28419497f9722a3daafe3b4186f6b6457e09190a35050565b60006020828403121561029957600080fd5b81356001600160a01b03811681146102b057600080fd5b939250505056fea2646970667358221220ccd9dd387a3ec819b4392c05e3c5530e032b063be784d77d6a99fd5a80984e4964736f6c634300080d0033546f6b656e20616464726573732063616e6e6f7420626520746865207a65726f",
  "linkReferences": {},
  "deployedLinkReferences": {}
}