{
  "_format": "hh-sol-artifact-1",
  "contractName": "Farming",
  "sourceName": "contracts/Farming.sol",
  "abi": [
    {
      "inputs": [
        {
          "internalType": "uint256",
          "name": "max_stake_amount_",
          "type": "uint256"
        },
        {
          "internalType": "contract IERC20",
          "name": "stakingToken_",
          "type": "address"
        },
        {
          "internalType": "address",
          "name": "lpTokenAddr_",
          "type": "address"
        },
        {
          "internalType": "address",
          "name": "nomiswapStakingServiceAddr_",
          "type": "address"
        },
        {
          "internalType": "address",
          "name": "nomiswapRouterServiceAddr_",
          "type": "address"
        }
      ],
      "stateMutability": "nonpayable",
      "type": "constructor"
    },
    {
      "anonymous": false,
      "inputs": [
        {
          "indexed": true,
          "internalType": "address",
          "name": "previousOwner",
          "type": "address"
        },
        {
          "indexed": true,
          "internalType": "address",
          "name": "newOwner",
          "type": "address"
        }
      ],
      "name": "OwnershipTransferred",
      "type": "event"
    },
    {
      "inputs": [],
      "name": "add_liquidity",
      "outputs": [],
      "stateMutability": "nonpayable",
      "type": "function"
    },
    {
      "inputs": [],
      "name": "deposit",
      "outputs": [],
      "stateMutability": "nonpayable",
      "type": "function"
    },
    {
      "inputs": [
        {
          "internalType": "address",
          "name": "_tokenIn",
          "type": "address"
        },
        {
          "internalType": "address",
          "name": "_tokenOut",
          "type": "address"
        },
        {
          "internalType": "uint256",
          "name": "_amountIn",
          "type": "uint256"
        }
      ],
      "name": "getAmountOutMin",
      "outputs": [
        {
          "internalType": "uint256",
          "name": "",
          "type": "uint256"
        }
      ],
      "stateMutability": "view",
      "type": "function"
    },
    {
      "inputs": [],
      "name": "get_amount_before_deposit",
      "outputs": [
        {
          "internalType": "uint256",
          "name": "",
          "type": "uint256"
        },
        {
          "internalType": "uint256",
          "name": "",
          "type": "uint256"
        },
        {
          "internalType": "uint256",
          "name": "",
          "type": "uint256"
        },
        {
          "internalType": "uint256",
          "name": "",
          "type": "uint256"
        },
        {
          "internalType": "uint256",
          "name": "",
          "type": "uint256"
        },
        {
          "internalType": "uint256",
          "name": "",
          "type": "uint256"
        }
      ],
      "stateMutability": "view",
      "type": "function"
    },
    {
      "inputs": [],
      "name": "liquidityAddress",
      "outputs": [
        {
          "components": [
            {
              "internalType": "int8",
              "name": "workchain",
              "type": "int8"
            },
            {
              "internalType": "bytes32",
              "name": "address_hash",
              "type": "bytes32"
            }
          ],
          "internalType": "struct TonAddress",
          "name": "",
          "type": "tuple"
        }
      ],
      "stateMutability": "view",
      "type": "function"
    },
    {
      "inputs": [],
      "name": "maxStake",
      "outputs": [
        {
          "internalType": "uint256",
          "name": "",
          "type": "uint256"
        }
      ],
      "stateMutability": "view",
      "type": "function"
    },
    {
      "inputs": [],
      "name": "nomiswapStakingServiceAddress",
      "outputs": [
        {
          "internalType": "address",
          "name": "",
          "type": "address"
        }
      ],
      "stateMutability": "view",
      "type": "function"
    },
    {
      "inputs": [],
      "name": "owner",
      "outputs": [
        {
          "internalType": "address",
          "name": "",
          "type": "address"
        }
      ],
      "stateMutability": "view",
      "type": "function"
    },
    {
      "inputs": [],
      "name": "renounceOwnership",
      "outputs": [],
      "stateMutability": "nonpayable",
      "type": "function"
    },
    {
      "inputs": [],
      "name": "royaltyAddress",
      "outputs": [
        {
          "internalType": "address",
          "name": "",
          "type": "address"
        }
      ],
      "stateMutability": "view",
      "type": "function"
    },
    {
      "inputs": [],
      "name": "stake",
      "outputs": [],
      "stateMutability": "nonpayable",
      "type": "function"
    },
    {
      "inputs": [],
      "name": "stop_staking",
      "outputs": [],
      "stateMutability": "nonpayable",
      "type": "function"
    },
    {
      "inputs": [],
      "name": "timer_init",
      "outputs": [],
      "stateMutability": "nonpayable",
      "type": "function"
    },
    {
      "inputs": [
        {
          "internalType": "address",
          "name": "newOwner",
          "type": "address"
        }
      ],
      "name": "transferOwnership",
      "outputs": [],
      "stateMutability": "nonpayable",
      "type": "function"
    },
    {
      "stateMutability": "payable",
      "type": "receive"
    }
  ],
  "bytecode": "0x6101606040523480156200001257600080fd5b506040516200209338038062002093833981016040819052620000359162000126565b6200004033620000bd565b604080518082019091526000808252602082018181527376a797a59ba2c17726896976b7b3747bfd1d220f608052600182905560e0979097526001600160a01b0395861660a05293851660c052918416610100529092166101205261014052516002805460ff191660ff909216919091179055516003556200019a565b600080546001600160a01b038381166001600160a01b0319831681178455604051919092169283917f8be0079c531659141344cd1fd0a4f28419497f9722a3daafe3b4186f6b6457e09190a35050565b6001600160a01b03811681146200012357600080fd5b50565b600080600080600060a086880312156200013f57600080fd5b85519450602086015162000153816200010d565b604087015190945062000166816200010d565b606087015190935062000179816200010d565b60808701519092506200018c816200010d565b809150509295509295909350565b60805160a05160c05160e051610100516101205161014051611dd3620002c0600039600081816102670152610f820152600081816113aa0152818161144a01526114f10152600081816102020152818161070d015281816107cd0152818161085e0152610a990152600081816102af0152610f0c01526000818161042e015281816106830152818161073f01526112620152600081816103bc015281816104cc015281816105e101528181610e0c01528181610e51015281816111f0015281816113000152818161147901528181611527015281816116c8015261171a01526000818161098801528181610ea001528181610ee001528181610f5b0152818161104a0152818161162701528181611667015281816116a701526116f90152611dd36000f3fe6080604052600436106100e15760003560e01c80638da5cb5b1161007f578063ea1b28e011610059578063ea1b28e0146102a0578063ec45ef89146102d3578063f2fde38b146102e8578063fd08a2011461030857600080fd5b80638da5cb5b1461023a578063ad2f852a14610258578063d0e30db01461028b57600080fd5b80633c50eec1116100bb5780633c50eec11461019b5780634ea0abfb146101c9578063715018a6146101de5780638d020e6b146101f357600080fd5b80630c45b610146100ed5780633221c93f146101345780633a4b66f11461018457600080fd5b366100e857005b600080fd5b3480156100f957600080fd5b5061010261031d565b604080519687526020870195909552938501929092526060840152608083015260a082015260c0015b60405180910390f35b34801561014057600080fd5b50604080518082018252600080825260209182018190528251808401845260025490910b80825260035491830191825283519081529051918101919091520161012b565b34801561019057600080fd5b5061019961066b565b005b3480156101a757600080fd5b506101bb6101b6366004611a19565b610834565b60405190815260200161012b565b3480156101d557600080fd5b50610199610849565b3480156101ea57600080fd5b50610199610954565b3480156101ff57600080fd5b507f00000000000000000000000000000000000000000000000000000000000000005b6040516001600160a01b03909116815260200161012b565b34801561024657600080fd5b506000546001600160a01b0316610222565b34801561026457600080fd5b507f0000000000000000000000000000000000000000000000000000000000000000610222565b34801561029757600080fd5b50610199610968565b3480156102ac57600080fd5b507f00000000000000000000000000000000000000000000000000000000000000006101bb565b3480156102df57600080fd5b50610199610970565b3480156102f457600080fd5b50610199610303366004611a55565b610a09565b34801561031457600080fd5b50610199610a84565b6040516370a0823160e01b8152306004820152600090819081908190819081908190600080516020611d7e833981519152906370a0823190602401602060405180830381865afa158015610375573d6000803e3d6000fd5b505050506040513d601f19601f820116820180604052508101906103999190611a77565b6040516370a0823160e01b81523060048201529091506000906001600160a01b037f000000000000000000000000000000000000000000000000000000000000000016906370a0823190602401602060405180830381865afa158015610403573d6000803e3d6000fd5b505050506040513d601f19601f820116820180604052508101906104279190611a77565b90506000807f00000000000000000000000000000000000000000000000000000000000000006001600160a01b0316630902f1ac6040518163ffffffff1660e01b8152600401606060405180830381865afa15801561048a573d6000803e3d6000fd5b505050506040513d601f19601f820116820180604052508101906104ae9190611aa7565b506001600160701b0391821693501690506000806001600160a01b037f000000000000000000000000000000000000000000000000000000000000000016600080516020611d7e8339815191521061050757828461050a565b83835b9092509050848261051b8389611b0d565b6105259190611b2c565b101561054757816105368288611b0d565b6105409190611b2c565b945061055f565b806105528387611b0d565b61055c9190611b2c565b95505b6040516370a0823160e01b8152306004820152600080516020611d7e833981519152906370a0823190602401602060405180830381865afa1580156105a8573d6000803e3d6000fd5b505050506040513d601f19601f820116820180604052508101906105cc9190611a77565b6040516370a0823160e01b81523060048201527f00000000000000000000000000000000000000000000000000000000000000006001600160a01b0316906370a0823190602401602060405180830381865afa158015610630573d6000803e3d6000fd5b505050506040513d601f19601f820116820180604052508101906106549190611a77565b909d909c50959a5093985096509194509192505050565b6040516370a0823160e01b81523060048201526000907f00000000000000000000000000000000000000000000000000000000000000006001600160a01b0316906370a0823190602401602060405180830381865afa1580156106d2573d6000803e3d6000fd5b505050506040513d601f19601f820116820180604052508101906106f69190611a77565b60405163095ea7b360e01b81526001600160a01b037f000000000000000000000000000000000000000000000000000000000000000081166004830152602482018390529192507f00000000000000000000000000000000000000000000000000000000000000009091169063095ea7b3906044016020604051808303816000875af115801561078a573d6000803e3d6000fd5b505050506040513d601f19601f820116820180604052508101906107ae9190611b4e565b5060405163111fc57d60e31b81526001600160801b03821660048201527f00000000000000000000000000000000000000000000000000000000000000006001600160a01b0316906388fe2be890602401600060405180830381600087803b15801561081957600080fd5b505af115801561082d573d6000803e3d6000fd5b5050505050565b6000610841848484610b92565b949350505050565b6040516348b4573960e11b81523060048201527f0000000000000000000000000000000000000000000000000000000000000000906000906001600160a01b03831690639168ae7290602401608060405180830381865afa1580156108b2573d6000803e3d6000fd5b505050506040513d601f19601f820116820180604052508101906108d69190611b87565b506040516322c50eb760e11b81526001600160801b03821660048201529093506001600160a01b038516925063458a1d6e9150602401600060405180830381600087803b15801561092657600080fd5b505af115801561093a573d6000803e3d6000fd5b50505050610950816001600160801b0316610df6565b5050565b61095c6110b3565b610966600061110d565b565b61096661115d565b6040516370a0823160e01b81523060048201526000907f00000000000000000000000000000000000000000000000000000000000000006001600160a01b0316906370a0823190602401602060405180830381865afa1580156109d7573d6000803e3d6000fd5b505050506040513d601f19601f820116820180604052508101906109fb9190611a77565b9050610a0681611608565b50565b610a116110b3565b6001600160a01b038116610a7b5760405162461bcd60e51b815260206004820152602660248201527f4f776e61626c653a206e6577206f776e657220697320746865207a65726f206160448201526564647265737360d01b60648201526084015b60405180910390fd5b610a068161110d565b6040516348b4573960e11b81523060048201527f0000000000000000000000000000000000000000000000000000000000000000906000906001600160a01b03831690639168ae7290602401608060405180830381865afa158015610aed573d6000803e3d6000fd5b505050506040513d601f19601f82011682018060405250810190610b119190611b87565b50506040516322c50eb760e11b81526001600160801b038316600482015291925082916001600160a01b038516915063458a1d6e90602401600060405180830381600087803b158015610b6357600080fd5b505af1158015610b77573d6000803e3d6000fd5b50505050610b8d816001600160801b0316610df6565b505050565b600060606001600160a01b03851673bb4cdb9cbd36b01bd1cbaebf2de08d9173bc095c1480610bdd57506001600160a01b03841673bb4cdb9cbd36b01bd1cbaebf2de08d9173bc095c145b15610c6f5760408051600280825260608201835290916020830190803683370190505090508481600081518110610c1657610c16611be1565b60200260200101906001600160a01b031690816001600160a01b0316815250508381600181518110610c4a57610c4a611be1565b60200260200101906001600160a01b031690816001600160a01b031681525050610d41565b6040805160038082526080820190925290602082016060803683370190505090508481600081518110610ca457610ca4611be1565b60200260200101906001600160a01b031690816001600160a01b0316815250507355d398326f99059ff775485246999027b319795581600181518110610cec57610cec611be1565b60200260200101906001600160a01b031690816001600160a01b0316815250508381600281518110610d2057610d20611be1565b60200260200101906001600160a01b031690816001600160a01b0316815250505b60405163d06ca61f60e01b81526000907310ed43c718714eb63d5aa57b78b54704e256024e9063d06ca61f90610d7d9087908690600401611c3b565b600060405180830381865afa158015610d9a573d6000803e3d6000fd5b505050506040513d6000823e601f3d908101601f19168201604052610dc29190810190611c54565b90508060018351610dd39190611d12565b81518110610de357610de3611be1565b6020026020010151925050509392505050565b6000610e3b600080516020611d7e8339815191527f0000000000000000000000000000000000000000000000000000000000000000610e36600486611b2c565b610b92565b9050610e82600080516020611d7e8339815191527f0000000000000000000000000000000000000000000000000000000000000000610e7b600486611b2c565b8430611744565b610e8a61115d565b6000610eca600080516020611d7e8339815191527f0000000000000000000000000000000000000000000000000000000000000000610e36600287611b2c565b9050610f0a600080516020611d7e8339815191527f0000000000000000000000000000000000000000000000000000000000000000610e7b600287611b2c565b7f000000000000000000000000000000000000000000000000000000000000000081600154610f399190611d29565b1161102157610f51610f4c600283611b2c565b611608565b6001600160a01b037f00000000000000000000000000000000000000000000000000000000000000001663a9059cbb7f0000000000000000000000000000000000000000000000000000000000000000610fac600285611b2c565b6040516001600160e01b031960e085901b1681526001600160a01b03909216600483015260248201526044016020604051808303816000875af1158015610ff7573d6000803e3d6000fd5b505050506040513d601f19601f8201168201806040525081019061101b9190611b4e565b50505050565b60405163e057fbff60e01b81526004810182905260025460000b602482015260035460448201527f00000000000000000000000000000000000000000000000000000000000000006001600160a01b03169063e057fbff90606401600060405180830381600087803b15801561109657600080fd5b505af11580156110aa573d6000803e3d6000fd5b50505050505050565b6000546001600160a01b031633146109665760405162461bcd60e51b815260206004820181905260248201527f4f776e61626c653a2063616c6c6572206973206e6f7420746865206f776e65726044820152606401610a72565b600080546001600160a01b038381166001600160a01b0319831681178455604051919092169283917f8be0079c531659141344cd1fd0a4f28419497f9722a3daafe3b4186f6b6457e09190a35050565b6040516370a0823160e01b8152306004820152600090600080516020611d7e833981519152906370a0823190602401602060405180830381865afa1580156111a9573d6000803e3d6000fd5b505050506040513d601f19601f820116820180604052508101906111cd9190611a77565b6040516370a0823160e01b81523060048201529091506000906001600160a01b037f000000000000000000000000000000000000000000000000000000000000000016906370a0823190602401602060405180830381865afa158015611237573d6000803e3d6000fd5b505050506040513d601f19601f8201168201806040525081019061125b9190611a77565b90506000807f00000000000000000000000000000000000000000000000000000000000000006001600160a01b0316630902f1ac6040518163ffffffff1660e01b8152600401606060405180830381865afa1580156112be573d6000803e3d6000fd5b505050506040513d601f19601f820116820180604052508101906112e29190611aa7565b506001600160701b0391821693501690506000806001600160a01b037f000000000000000000000000000000000000000000000000000000000000000016600080516020611d7e8339815191521061133b57828461133e565b83835b9092509050848261134f8389611b0d565b6113599190611b2c565b101561137b578161136a8288611b0d565b6113749190611b2c565b9450611393565b806113868387611b0d565b6113909190611b2c565b95505b60405163095ea7b360e01b81526001600160a01b037f000000000000000000000000000000000000000000000000000000000000000016600482015260248101879052600080516020611d7e8339815191529063095ea7b3906044016020604051808303816000875af115801561140e573d6000803e3d6000fd5b505050506040513d601f19601f820116820180604052508101906114329190611b4e565b5060405163095ea7b360e01b81526001600160a01b037f000000000000000000000000000000000000000000000000000000000000000081166004830152602482018790527f0000000000000000000000000000000000000000000000000000000000000000169063095ea7b3906044016020604051808303816000875af11580156114c2573d6000803e3d6000fd5b505050506040513d601f19601f820116820180604052508101906114e69190611b4e565b506001600160a01b037f00000000000000000000000000000000000000000000000000000000000000001663e8e33700600080516020611d7e8339815191527f000000000000000000000000000000000000000000000000000000000000000089896103e8611557836103e3611b0d565b6115619190611b2c565b6103e86115708d6103e3611b0d565b61157a9190611b2c565b6040516001600160e01b031960e089901b1681526001600160a01b03968716600482015295909416602486015260448501929092526064840152608483015260a48201523060c48201524260e482015261010401600060405180830381600087803b1580156115e857600080fd5b505af11580156115fc573d6000803e3d6000fd5b50505050505050505050565b806001600082825461161a9190611d29565b90915550600090506116607f0000000000000000000000000000000000000000000000000000000000000000600080516020611d7e833981519152610e36600286611b2c565b90506116a07f0000000000000000000000000000000000000000000000000000000000000000600080516020611d7e833981519152610e7b600286611b2c565b60006116f27f00000000000000000000000000000000000000000000000000000000000000007f0000000000000000000000000000000000000000000000000000000000000000610e36600287611b2c565b9050610b8d7f00000000000000000000000000000000000000000000000000000000000000007f0000000000000000000000000000000000000000000000000000000000000000610e7b600287611b2c565b60405163095ea7b360e01b81527310ed43c718714eb63d5aa57b78b54704e256024e6004820152602481018490526001600160a01b0386169063095ea7b3906044016020604051808303816000875af11580156117a5573d6000803e3d6000fd5b505050506040513d601f19601f820116820180604052508101906117c99190611b4e565b5060606001600160a01b03861673bb4cdb9cbd36b01bd1cbaebf2de08d9173bc095c148061181357506001600160a01b03851673bb4cdb9cbd36b01bd1cbaebf2de08d9173bc095c145b156118a5576040805160028082526060820183529091602083019080368337019050509050858160008151811061184c5761184c611be1565b60200260200101906001600160a01b031690816001600160a01b031681525050848160018151811061188057611880611be1565b60200260200101906001600160a01b031690816001600160a01b031681525050611977565b60408051600380825260808201909252906020820160608036833701905050905085816000815181106118da576118da611be1565b60200260200101906001600160a01b031690816001600160a01b0316815250507355d398326f99059ff775485246999027b31979558160018151811061192257611922611be1565b60200260200101906001600160a01b031690816001600160a01b031681525050848160028151811061195657611956611be1565b60200260200101906001600160a01b031690816001600160a01b0316815250505b6040516338ed173960e01b81527310ed43c718714eb63d5aa57b78b54704e256024e906338ed1739906119b69087908790869088904290600401611d41565b6000604051808303816000875af11580156119d5573d6000803e3d6000fd5b505050506040513d6000823e601f3d908101601f191682016040526110aa9190810190611c54565b80356001600160a01b0381168114611a1457600080fd5b919050565b600080600060608486031215611a2e57600080fd5b611a37846119fd565b9250611a45602085016119fd565b9150604084013590509250925092565b600060208284031215611a6757600080fd5b611a70826119fd565b9392505050565b600060208284031215611a8957600080fd5b5051919050565b80516001600160701b0381168114611a1457600080fd5b600080600060608486031215611abc57600080fd5b611ac584611a90565b9250611ad360208501611a90565b9150604084015163ffffffff81168114611aec57600080fd5b809150509250925092565b634e487b7160e01b600052601160045260246000fd5b6000816000190483118215151615611b2757611b27611af7565b500290565b600082611b4957634e487b7160e01b600052601260045260246000fd5b500490565b600060208284031215611b6057600080fd5b81518015158114611a7057600080fd5b80516001600160801b0381168114611a1457600080fd5b60008060008060808587031215611b9d57600080fd5b84519350611bad60208601611b70565b9250611bbb60408601611b70565b6060959095015193969295505050565b634e487b7160e01b600052604160045260246000fd5b634e487b7160e01b600052603260045260246000fd5b600081518084526020808501945080840160005b83811015611c305781516001600160a01b031687529582019590820190600101611c0b565b509495945050505050565b8281526040602082015260006108416040830184611bf7565b60006020808385031215611c6757600080fd5b825167ffffffffffffffff80821115611c7f57600080fd5b818501915085601f830112611c9357600080fd5b815181811115611ca557611ca5611bcb565b8060051b604051601f19603f83011681018181108582111715611cca57611cca611bcb565b604052918252848201925083810185019188831115611ce857600080fd5b938501935b82851015611d0657845184529385019392850192611ced565b98975050505050505050565b600082821015611d2457611d24611af7565b500390565b60008219821115611d3c57611d3c611af7565b500190565b85815284602082015260a060408201526000611d6060a0830186611bf7565b6001600160a01b039490941660608301525060800152939250505056fe000000000000000000000000d32d01a43c869edcd1117c640fbdcfcfd97d9d65a2646970667358221220b1490801fd5914aa345a9bad2149d71ccb79b37f63e5a9b2b18910766a951b8664736f6c634300080d0033",
  "linkReferences": {},
  "deployedLinkReferences": {}
}