{
  "_format": "hh-sol-artifact-1",
  "contractName": "StakingEve",
  "sourceName": "contracts/StakingEve.sol",
  "abi": [
    {
      "inputs": [
        {
          "internalType": "contract IERC20",
          "name": "tonTokenAddr_",
          "type": "address"
        },
        {
          "internalType": "address",
          "name": "stakingAddr_",
          "type": "address"
        }
      ],
      "stateMutability": "nonpayable",
      "type": "constructor"
    },
    {
      "anonymous": false,
      "inputs": [
        {
          "indexed": true,
          "internalType": "address",
          "name": "previousOwner",
          "type": "address"
        },
        {
          "indexed": true,
          "internalType": "address",
          "name": "newOwner",
          "type": "address"
        }
      ],
      "name": "OwnershipTransferred",
      "type": "event"
    },
    {
      "inputs": [],
      "name": "owner",
      "outputs": [
        {
          "internalType": "address",
          "name": "",
          "type": "address"
        }
      ],
      "stateMutability": "view",
      "type": "function"
    },
    {
      "inputs": [],
      "name": "received",
      "outputs": [],
      "stateMutability": "nonpayable",
      "type": "function"
    },
    {
      "inputs": [],
      "name": "renounceOwnership",
      "outputs": [],
      "stateMutability": "nonpayable",
      "type": "function"
    },
    {
      "inputs": [],
      "name": "stakingAddress",
      "outputs": [
        {
          "internalType": "address",
          "name": "",
          "type": "address"
        }
      ],
      "stateMutability": "view",
      "type": "function"
    },
    {
      "inputs": [
        {
          "internalType": "address",
          "name": "newOwner",
          "type": "address"
        }
      ],
      "name": "transferOwnership",
      "outputs": [],
      "stateMutability": "nonpayable",
      "type": "function"
    },
    {
      "stateMutability": "payable",
      "type": "receive"
    }
  ],
  "bytecode": "0x60c060405234801561001057600080fd5b5060405161070338038061070383398101604081905261002f916101c4565b6100383361015c565b6001600160a01b0382166100c1576040517f08c379a000000000000000000000000000000000000000000000000000000000815260206004820152602860248201526000805160206106e383398151915260448201527f206164647265737300000000000000000000000000000000000000000000000060648201526084015b60405180910390fd5b6001600160a01b038116610145576040517f08c379a000000000000000000000000000000000000000000000000000000000815260206004820152602860248201526000805160206106e383398151915260448201527f206164647265737300000000000000000000000000000000000000000000000060648201526084016100b8565b6001600160a01b039182166080521660a0526101fe565b600080546001600160a01b038381166001600160a01b0319831681178455604051919092169283917f8be0079c531659141344cd1fd0a4f28419497f9722a3daafe3b4186f6b6457e09190a35050565b6001600160a01b03811681146101c157600080fd5b50565b600080604083850312156101d757600080fd5b82516101e2816101ac565b60208401519092506101f3816101ac565b809150509250929050565b60805160a0516104ac6102376000396000818160cb015281816101c5015261026b01526000818161013b01526101f701526104ac6000f3fe60806040526004361061004e5760003560e01c8063715018a61461005a57806383a6deb5146100715780638da5cb5b14610086578063d7b4be24146100bc578063f2fde38b146100ef57600080fd5b3661005557005b600080fd5b34801561006657600080fd5b5061006f61010f565b005b34801561007d57600080fd5b5061006f610123565b34801561009257600080fd5b506000546001600160a01b03165b6040516001600160a01b03909116815260200160405180910390f35b3480156100c857600080fd5b507f00000000000000000000000000000000000000000000000000000000000000006100a0565b3480156100fb57600080fd5b5061006f61010a36600461040b565b6102e3565b610117610361565b61012160006103bb565b565b6040516370a0823160e01b81523060048201526000907f00000000000000000000000000000000000000000000000000000000000000006001600160a01b0316906370a0823190602401602060405180830381865afa15801561018a573d6000803e3d6000fd5b505050506040513d601f19601f820116820180604052508101906101ae919061043b565b60405163a9059cbb60e01b81526001600160a01b037f000000000000000000000000000000000000000000000000000000000000000081166004830152602482018390529192507f00000000000000000000000000000000000000000000000000000000000000009091169063a9059cbb906044016020604051808303816000875af1158015610242573d6000803e3d6000fd5b505050506040513d601f19601f820116820180604052508101906102669190610454565b5060007f00000000000000000000000000000000000000000000000000000000000000009050806001600160a01b031663ec45ef896040518163ffffffff1660e01b8152600401600060405180830381600087803b1580156102c757600080fd5b505af11580156102db573d6000803e3d6000fd5b505050505050565b6102eb610361565b6001600160a01b0381166103555760405162461bcd60e51b815260206004820152602660248201527f4f776e61626c653a206e6577206f776e657220697320746865207a65726f206160448201526564647265737360d01b60648201526084015b60405180910390fd5b61035e816103bb565b50565b6000546001600160a01b031633146101215760405162461bcd60e51b815260206004820181905260248201527f4f776e61626c653a2063616c6c6572206973206e6f7420746865206f776e6572604482015260640161034c565b600080546001600160a01b038381166001600160a01b0319831681178455604051919092169283917f8be0079c531659141344cd1fd0a4f28419497f9722a3daafe3b4186f6b6457e09190a35050565b60006020828403121561041d57600080fd5b81356001600160a01b038116811461043457600080fd5b9392505050565b60006020828403121561044d57600080fd5b5051919050565b60006020828403121561046657600080fd5b8151801515811461043457600080fdfea26469706673582212208f134502488ff2bc5364bfb020d505c26018c0f98a2b8d368bd1032b44dd514464736f6c634300080d0033546f6b656e20616464726573732063616e6e6f7420626520746865207a65726f",
  "linkReferences": {},
  "deployedLinkReferences": {}
}